{
  "contractName": "AccessControlList",
  "abi": [
    {
      "inputs": [],
      "stateMutability": "nonpayable",
      "type": "constructor"
    },
    {
      "anonymous": false,
      "inputs": [
        {
          "indexed": false,
          "internalType": "string",
          "name": "message",
          "type": "string"
        }
      ],
      "name": "CustomError",
      "type": "event"
    },
    {
      "anonymous": false,
      "inputs": [
        {
          "indexed": false,
          "internalType": "string",
          "name": "eventType",
          "type": "string"
        },
        {
          "indexed": false,
          "internalType": "bytes32",
          "name": "name",
          "type": "bytes32"
        },
        {
          "indexed": false,
          "internalType": "uint256",
          "name": "lastUpdated",
          "type": "uint256"
        },
        {
          "indexed": false,
          "internalType": "string",
          "name": "listedUser",
          "type": "string"
        },
        {
          "indexed": false,
          "internalType": "bool",
          "name": "isBlacklisted",
          "type": "bool"
        }
      ],
      "name": "ResourceUpdated",
      "type": "event"
    },
    {
      "anonymous": false,
      "inputs": [
        {
          "indexed": false,
          "internalType": "string",
          "name": "eventType",
          "type": "string"
        },
        {
          "components": [
            {
              "internalType": "bytes32",
              "name": "permission",
              "type": "bytes32"
            },
            {
              "internalType": "bool",
              "name": "isCustom",
              "type": "bool"
            }
          ],
          "indexed": false,
          "internalType": "struct Data.PermissionStruct",
          "name": "permission",
          "type": "tuple"
        },
        {
          "indexed": false,
          "internalType": "uint256",
          "name": "updateTime",
          "type": "uint256"
        }
      ],
      "name": "UpdatedPermission",
      "type": "event"
    },
    {
      "anonymous": false,
      "inputs": [
        {
          "indexed": false,
          "internalType": "string",
          "name": "eventType",
          "type": "string"
        },
        {
          "components": [
            {
              "internalType": "bytes32[]",
              "name": "permissions",
              "type": "bytes32[]"
            },
            {
              "internalType": "bytes32",
              "name": "name",
              "type": "bytes32"
            },
            {
              "internalType": "bool",
              "name": "isCustom",
              "type": "bool"
            }
          ],
          "indexed": false,
          "internalType": "struct Data.Role",
          "name": "role",
          "type": "tuple"
        },
        {
          "indexed": false,
          "internalType": "uint256",
          "name": "updateTime",
          "type": "uint256"
        }
      ],
      "name": "UpdatedRole",
      "type": "event"
    },
    {
      "anonymous": false,
      "inputs": [
        {
          "indexed": false,
          "internalType": "string",
          "name": "eventType",
          "type": "string"
        },
        {
          "indexed": false,
          "internalType": "string",
          "name": "ebsiDID",
          "type": "string"
        },
        {
          "indexed": false,
          "internalType": "uint256",
          "name": "updatedTime",
          "type": "uint256"
        },
        {
          "indexed": false,
          "internalType": "bytes32",
          "name": "addedResource",
          "type": "bytes32"
        }
      ],
      "name": "UserUpdated",
      "type": "event"
    },
    {
      "inputs": [
        {
          "internalType": "bytes32",
          "name": "_bytes32",
          "type": "bytes32"
        }
      ],
      "name": "bytes32ToString",
      "outputs": [
        {
          "internalType": "string",
          "name": "",
          "type": "string"
        }
      ],
      "stateMutability": "pure",
      "type": "function",
      "constant": true
    },
    {
      "inputs": [
        {
          "internalType": "address",
          "name": "_address",
          "type": "address"
        }
      ],
      "name": "getEbsiDID",
      "outputs": [
        {
          "internalType": "string",
          "name": "",
          "type": "string"
        }
      ],
      "stateMutability": "view",
      "type": "function",
      "constant": true
    },
    {
      "inputs": [],
      "name": "initRoles",
      "outputs": [],
      "stateMutability": "nonpayable",
      "type": "function"
    },
    {
      "inputs": [
        {
          "internalType": "string",
          "name": "_ebsiDID",
          "type": "string"
        },
        {
          "internalType": "bytes32",
          "name": "_resourceID",
          "type": "bytes32"
        },
        {
          "internalType": "bytes32",
          "name": "_permission",
          "type": "bytes32"
        }
      ],
      "name": "checkPermission",
      "outputs": [
        {
          "internalType": "bool",
          "name": "",
          "type": "bool"
        }
      ],
      "stateMutability": "view",
      "type": "function",
      "constant": true
    },
    {
      "inputs": [
        {
          "internalType": "string",
          "name": "ebsiDID",
          "type": "string"
        },
        {
          "internalType": "bool",
          "name": "skipSendEvent",
          "type": "bool"
        }
      ],
      "name": "isUserAlreadyCreated",
      "outputs": [
        {
          "internalType": "bool",
          "name": "",
          "type": "bool"
        }
      ],
      "stateMutability": "nonpayable",
      "type": "function"
    },
    {
      "inputs": [
        {
          "internalType": "string",
          "name": "ebsiDID",
          "type": "string"
        },
        {
          "internalType": "bytes32[]",
          "name": "resourcesNames",
          "type": "bytes32[]"
        }
      ],
      "name": "createUser",
      "outputs": [
        {
          "components": [
            {
              "internalType": "string",
              "name": "ebsiDID",
              "type": "string"
            },
            {
              "internalType": "bytes32[]",
              "name": "resourcesHashes",
              "type": "bytes32[]"
            },
            {
              "internalType": "uint256",
              "name": "createdTime",
              "type": "uint256"
            },
            {
              "internalType": "uint256",
              "name": "lastUpdate",
              "type": "uint256"
            },
            {
              "internalType": "uint256",
              "name": "lastAccess",
              "type": "uint256"
            }
          ],
          "internalType": "struct Data.User",
          "name": "user",
          "type": "tuple"
        }
      ],
      "stateMutability": "nonpayable",
      "type": "function"
    },
    {
      "inputs": [
        {
          "internalType": "string",
          "name": "ebsiDID",
          "type": "string"
        },
        {
          "internalType": "string[]",
          "name": "newUsersArray",
          "type": "string[]"
        }
      ],
      "name": "removeUser",
      "outputs": [
        {
          "internalType": "bool",
          "name": "removed",
          "type": "bool"
        }
      ],
      "stateMutability": "nonpayable",
      "type": "function"
    },
    {
      "inputs": [],
      "name": "getAllEbsiDIDs",
      "outputs": [
        {
          "internalType": "string[]",
          "name": "ebsiDIDs",
          "type": "string[]"
        }
      ],
      "stateMutability": "view",
      "type": "function",
      "constant": true
    },
    {
      "inputs": [
        {
          "internalType": "string",
          "name": "ebsiDID",
          "type": "string"
        }
      ],
      "name": "getUser",
      "outputs": [
        {
          "components": [
            {
              "internalType": "string",
              "name": "ebsiDID",
              "type": "string"
            },
            {
              "internalType": "bytes32[]",
              "name": "resourcesHashes",
              "type": "bytes32[]"
            },
            {
              "internalType": "uint256",
              "name": "createdTime",
              "type": "uint256"
            },
            {
              "internalType": "uint256",
              "name": "lastUpdate",
              "type": "uint256"
            },
            {
              "internalType": "uint256",
              "name": "lastAccess",
              "type": "uint256"
            }
          ],
          "internalType": "struct Data.User",
          "name": "",
          "type": "tuple"
        }
      ],
      "stateMutability": "view",
      "type": "function",
      "constant": true
    },
    {
      "inputs": [
        {
          "internalType": "string",
          "name": "ebsiDID",
          "type": "string"
        }
      ],
      "name": "getAllUserRoles",
      "outputs": [
        {
          "components": [
            {
              "internalType": "bytes32",
              "name": "resourceName",
              "type": "bytes32"
            },
            {
              "components": [
                {
                  "internalType": "bytes32[]",
                  "name": "permissions",
                  "type": "bytes32[]"
                },
                {
                  "internalType": "bytes32",
                  "name": "name",
                  "type": "bytes32"
                },
                {
                  "internalType": "bool",
                  "name": "isCustom",
                  "type": "bool"
                }
              ],
              "internalType": "struct Data.Role",
              "name": "role",
              "type": "tuple"
            }
          ],
          "internalType": "struct Data.ResourcesRoles[]",
          "name": "",
          "type": "tuple[]"
        }
      ],
      "stateMutability": "view",
      "type": "function",
      "constant": true
    },
    {
      "inputs": [],
      "name": "getAllUsers",
      "outputs": [
        {
          "components": [
            {
              "internalType": "string",
              "name": "ebsiDID",
              "type": "string"
            },
            {
              "internalType": "bytes32[]",
              "name": "resourcesHashes",
              "type": "bytes32[]"
            },
            {
              "internalType": "uint256",
              "name": "createdTime",
              "type": "uint256"
            },
            {
              "internalType": "uint256",
              "name": "lastUpdate",
              "type": "uint256"
            },
            {
              "internalType": "uint256",
              "name": "lastAccess",
              "type": "uint256"
            }
          ],
          "internalType": "struct Data.User[]",
          "name": "",
          "type": "tuple[]"
        }
      ],
      "stateMutability": "view",
      "type": "function",
      "constant": true
    },
    {
      "inputs": [
        {
          "internalType": "string",
          "name": "ebsiDID",
          "type": "string"
        },
        {
          "internalType": "bytes32",
          "name": "resourceName",
          "type": "bytes32"
        },
        {
          "components": [
            {
              "internalType": "bytes32[]",
              "name": "permissions",
              "type": "bytes32[]"
            },
            {
              "internalType": "bytes32",
              "name": "name",
              "type": "bytes32"
            },
            {
              "internalType": "bool",
              "name": "isCustom",
              "type": "bool"
            }
          ],
          "internalType": "struct Data.Role",
          "name": "role",
          "type": "tuple"
        }
      ],
      "name": "assignResourceToUser",
      "outputs": [],
      "stateMutability": "nonpayable",
      "type": "function"
    },
    {
      "inputs": [
        {
          "internalType": "string",
          "name": "ebsiDID",
          "type": "string"
        },
        {
          "internalType": "bytes32",
          "name": "resourceName",
          "type": "bytes32"
        },
        {
          "internalType": "bytes32[]",
          "name": "newResourcesNames",
          "type": "bytes32[]"
        }
      ],
      "name": "removeResourceFromUser",
      "outputs": [],
      "stateMutability": "nonpayable",
      "type": "function"
    },
    {
      "inputs": [
        {
          "internalType": "bytes32",
          "name": "resourceHash",
          "type": "bytes32"
        }
      ],
      "name": "getResource",
      "outputs": [
        {
          "components": [
            {
              "internalType": "bytes32",
              "name": "name",
              "type": "bytes32"
            },
            {
              "internalType": "string[]",
              "name": "blacklist",
              "type": "string[]"
            }
          ],
          "internalType": "struct Data.Resource",
          "name": "",
          "type": "tuple"
        }
      ],
      "stateMutability": "view",
      "type": "function",
      "constant": true
    },
    {
      "inputs": [
        {
          "internalType": "bytes32",
          "name": "name",
          "type": "bytes32"
        }
      ],
      "name": "isResourceAlreadyCreated",
      "outputs": [
        {
          "internalType": "bool",
          "name": "",
          "type": "bool"
        }
      ],
      "stateMutability": "nonpayable",
      "type": "function"
    },
    {
      "inputs": [
        {
          "internalType": "bytes32",
          "name": "name",
          "type": "bytes32"
        }
      ],
      "name": "createResource",
      "outputs": [
        {
          "internalType": "bytes32",
          "name": "resourceHash",
          "type": "bytes32"
        }
      ],
      "stateMutability": "nonpayable",
      "type": "function"
    },
    {
      "inputs": [
        {
          "internalType": "bytes32",
          "name": "name",
          "type": "bytes32"
        },
        {
          "internalType": "bytes32[]",
          "name": "newCreatedResourcesArray",
          "type": "bytes32[]"
        }
      ],
      "name": "deleteResource",
      "outputs": [],
      "stateMutability": "nonpayable",
      "type": "function"
    },
    {
      "inputs": [],
      "name": "getAllResourcesInBytes32",
      "outputs": [
        {
          "internalType": "bytes32[]",
          "name": "",
          "type": "bytes32[]"
        }
      ],
      "stateMutability": "view",
      "type": "function",
      "constant": true
    },
    {
      "inputs": [],
      "name": "getAllResources",
      "outputs": [
        {
          "components": [
            {
              "internalType": "bytes32",
              "name": "name",
              "type": "bytes32"
            },
            {
              "internalType": "string[]",
              "name": "blacklist",
              "type": "string[]"
            }
          ],
          "internalType": "struct Data.Resource[]",
          "name": "",
          "type": "tuple[]"
        }
      ],
      "stateMutability": "view",
      "type": "function",
      "constant": true
    },
    {
      "inputs": [
        {
          "internalType": "string",
          "name": "ebsiDID",
          "type": "string"
        }
      ],
      "name": "getAllUserResources",
      "outputs": [
        {
          "components": [
            {
              "internalType": "bytes32",
              "name": "name",
              "type": "bytes32"
            },
            {
              "internalType": "string[]",
              "name": "blacklist",
              "type": "string[]"
            }
          ],
          "internalType": "struct Data.Resource[]",
          "name": "",
          "type": "tuple[]"
        }
      ],
      "stateMutability": "view",
      "type": "function",
      "constant": true
    },
    {
      "inputs": [
        {
          "internalType": "string",
          "name": "ebsiDID",
          "type": "string"
        },
        {
          "internalType": "bytes32",
          "name": "resourceHash",
          "type": "bytes32"
        }
      ],
      "name": "getAllUsersInBlacklist",
      "outputs": [
        {
          "internalType": "string[]",
          "name": "tempUsers",
          "type": "string[]"
        }
      ],
      "stateMutability": "view",
      "type": "function",
      "constant": true
    },
    {
      "inputs": [
        {
          "internalType": "string",
          "name": "requester",
          "type": "string"
        },
        {
          "internalType": "string",
          "name": "ebsiDID",
          "type": "string"
        },
        {
          "internalType": "bytes32",
          "name": "resourceUID",
          "type": "bytes32"
        }
      ],
      "name": "addUserToBlackList",
      "outputs": [],
      "stateMutability": "nonpayable",
      "type": "function"
    },
    {
      "inputs": [
        {
          "internalType": "string",
          "name": "requester",
          "type": "string"
        },
        {
          "internalType": "string",
          "name": "ebsiDID",
          "type": "string"
        },
        {
          "internalType": "bytes32",
          "name": "resourceUID",
          "type": "bytes32"
        },
        {
          "internalType": "string[]",
          "name": "newBlacklist",
          "type": "string[]"
        }
      ],
      "name": "removeUserFromBlacklist",
      "outputs": [],
      "stateMutability": "nonpayable",
      "type": "function"
    },
    {
      "inputs": [],
      "name": "getAllAvailableRoles",
      "outputs": [
        {
          "components": [
            {
              "internalType": "bytes32[]",
              "name": "permissions",
              "type": "bytes32[]"
            },
            {
              "internalType": "bytes32",
              "name": "name",
              "type": "bytes32"
            },
            {
              "internalType": "bool",
              "name": "isCustom",
              "type": "bool"
            }
          ],
          "internalType": "struct Data.Role[]",
          "name": "",
          "type": "tuple[]"
        }
      ],
      "stateMutability": "view",
      "type": "function",
      "constant": true
    },
    {
      "inputs": [
        {
          "internalType": "bytes32",
          "name": "roleID",
          "type": "bytes32"
        }
      ],
      "name": "getRole",
      "outputs": [
        {
          "components": [
            {
              "internalType": "bytes32[]",
              "name": "permissions",
              "type": "bytes32[]"
            },
            {
              "internalType": "bytes32",
              "name": "name",
              "type": "bytes32"
            },
            {
              "internalType": "bool",
              "name": "isCustom",
              "type": "bool"
            }
          ],
          "internalType": "struct Data.Role",
          "name": "",
          "type": "tuple"
        }
      ],
      "stateMutability": "view",
      "type": "function",
      "constant": true
    },
    {
      "inputs": [
        {
          "internalType": "string",
          "name": "requester",
          "type": "string"
        },
        {
          "internalType": "string",
          "name": "ebsiDID",
          "type": "string"
        },
        {
          "internalType": "bytes32",
          "name": "resourceUID",
          "type": "bytes32"
        },
        {
          "components": [
            {
              "internalType": "bytes32[]",
              "name": "permissions",
              "type": "bytes32[]"
            },
            {
              "internalType": "bytes32",
              "name": "name",
              "type": "bytes32"
            },
            {
              "internalType": "bool",
              "name": "isCustom",
              "type": "bool"
            }
          ],
          "internalType": "struct Data.Role",
          "name": "role",
          "type": "tuple"
        }
      ],
      "name": "assignRole",
      "outputs": [],
      "stateMutability": "nonpayable",
      "type": "function"
    },
    {
      "inputs": [
        {
          "internalType": "string",
          "name": "requester",
          "type": "string"
        },
        {
          "internalType": "string",
          "name": "ebsiDID",
          "type": "string"
        },
        {
          "internalType": "bytes32",
          "name": "resourceUID",
          "type": "bytes32"
        }
      ],
      "name": "revokeRole",
      "outputs": [],
      "stateMutability": "nonpayable",
      "type": "function"
    },
    {
      "inputs": [
        {
          "internalType": "bytes32",
          "name": "roleName",
          "type": "bytes32"
        }
      ],
      "name": "isRoleAlreadyCreated",
      "outputs": [
        {
          "internalType": "bool",
          "name": "",
          "type": "bool"
        }
      ],
      "stateMutability": "nonpayable",
      "type": "function"
    },
    {
      "inputs": [
        {
          "internalType": "bytes32",
          "name": "roleName",
          "type": "bytes32"
        },
        {
          "internalType": "bytes32[]",
          "name": "permissions",
          "type": "bytes32[]"
        }
      ],
      "name": "createCustomRole",
      "outputs": [],
      "stateMutability": "nonpayable",
      "type": "function"
    },
    {
      "inputs": [
        {
          "internalType": "bytes32[]",
          "name": "newCreatedRolesArray",
          "type": "bytes32[]"
        },
        {
          "internalType": "bytes32",
          "name": "roleName",
          "type": "bytes32"
        }
      ],
      "name": "deleteCustomRole",
      "outputs": [],
      "stateMutability": "nonpayable",
      "type": "function"
    },
    {
      "inputs": [],
      "name": "getAllRolesInBytes32",
      "outputs": [
        {
          "internalType": "bytes32[]",
          "name": "",
          "type": "bytes32[]"
        }
      ],
      "stateMutability": "view",
      "type": "function",
      "constant": true
    },
    {
      "inputs": [],
      "name": "getAllAvailablePermissions",
      "outputs": [
        {
          "components": [
            {
              "internalType": "bytes32",
              "name": "permission",
              "type": "bytes32"
            },
            {
              "internalType": "bool",
              "name": "isCustom",
              "type": "bool"
            }
          ],
          "internalType": "struct Data.PermissionStruct[]",
          "name": "",
          "type": "tuple[]"
        }
      ],
      "stateMutability": "view",
      "type": "function",
      "constant": true
    },
    {
      "inputs": [
        {
          "internalType": "bytes32",
          "name": "permissionID",
          "type": "bytes32"
        }
      ],
      "name": "getPermission",
      "outputs": [
        {
          "components": [
            {
              "internalType": "bytes32",
              "name": "permission",
              "type": "bytes32"
            },
            {
              "internalType": "bool",
              "name": "isCustom",
              "type": "bool"
            }
          ],
          "internalType": "struct Data.PermissionStruct",
          "name": "",
          "type": "tuple"
        }
      ],
      "stateMutability": "view",
      "type": "function",
      "constant": true
    },
    {
      "inputs": [
        {
          "internalType": "bytes32",
          "name": "permissionName",
          "type": "bytes32"
        }
      ],
      "name": "isPermissionAlreadyCreated",
      "outputs": [
        {
          "internalType": "bool",
          "name": "",
          "type": "bool"
        }
      ],
      "stateMutability": "nonpayable",
      "type": "function"
    },
    {
      "inputs": [
        {
          "internalType": "bytes32",
          "name": "name",
          "type": "bytes32"
        }
      ],
      "name": "createCustomPermission",
      "outputs": [],
      "stateMutability": "nonpayable",
      "type": "function"
    },
    {
      "inputs": [],
      "name": "getAllPermissionsInBytes32",
      "outputs": [
        {
          "internalType": "bytes32[]",
          "name": "",
          "type": "bytes32[]"
        }
      ],
      "stateMutability": "view",
      "type": "function",
      "constant": true
    },
    {
      "inputs": [
        {
          "internalType": "bytes32[]",
          "name": "newCreatedPermissionsArray",
          "type": "bytes32[]"
        },
        {
          "internalType": "bytes32",
          "name": "name",
          "type": "bytes32"
        }
      ],
      "name": "deleteCustomPermission",
      "outputs": [],
      "stateMutability": "nonpayable",
      "type": "function"
    }
  ],
  "bytecode": "0x60806040523480156200001157600080fd5b506200001c62000022565b62000bfc565b60006040518060400160405280631c99585960e21b8152602001600015158152509050600060405180604001604052806319591a5d60e21b8152602001600015158152509050600060405180604001604052806564656c65746560d01b8152602001600015158152509050600060405180604001604052806563726561746560d01b8152602001600015158152509050600060405180604001604052806419dc985b9d60da1b815260200160001515815250905060006040518060400160405280657265766f6b6560d01b8152602001600015158152509050631c99585960e21b600f819055508560056000600f5481526020019081526020016000206000820151816000015560208201518160010160006101000a81548160ff0219169083151502179055509050506009600f5490806001815401808255809150506001900390600052602060002001600090919091909150556001600d6000600f54815260200190815260200160002060006101000a81548160ff0219169083151502179055506319591a5d60e21b601181905550846005600060115481526020019081526020016000206000820151816000015560208201518160010160006101000a81548160ff021916908315150217905550905050600960115490806001815401808255809150506001900390600052602060002001600090919091909150556001600d6000601154815260200190815260200160002060006101000a81548160ff0219169083151502179055506563726561746560d01b601081905550826005600060105481526020019081526020016000206000820151816000015560208201518160010160006101000a81548160ff021916908315150217905550905050600960105490806001815401808255809150506001900390600052602060002001600090919091909150556001600d6000601054815260200190815260200160002060006101000a81548160ff0219169083151502179055506564656c65746560d01b601281905550836005600060125481526020019081526020016000206000820151816000015560208201518160010160006101000a81548160ff021916908315150217905550905050600960125490806001815401808255809150506001900390600052602060002001600090919091909150556001600d6000601254815260200190815260200160002060006101000a81548160ff0219169083151502179055506419dc985b9d60da1b601381905550816005600060135481526020019081526020016000206000820151816000015560208201518160010160006101000a81548160ff021916908315150217905550905050600960135490806001815401808255809150506001900390600052602060002001600090919091909150556001600d6000601354815260200190815260200160002060006101000a81548160ff021916908315150217905550657265766f6b6560d01b601481905550806005600060145481526020019081526020016000206000820151816000015560208201518160010160006101000a81548160ff021916908315150217905550905050600960145490806001815401808255809150506001900390600052602060002001600090919091909150556001600d6000601454815260200190815260200160002060006101000a81548160ff0219169083151502179055506000633ab9b2b960e11b905060006532b234ba37b960d11b905060006636b0b730b3b2b960c91b905060006430b236b4b760d91b905060405180608001604052808581526020018481526020018381526020018281525060079060046200056792919062000b7f565b506040805160016060820181815260a0830190935290918291608083016020803683375050508152633ab9b2b960e11b602080830191909152600060409283018190528781526002825291909120825180519192620005cc9284929091019062000b7f565b506020828101516001838101919091556040938401516002909301805493151560ff199485161790556000888152600c90925290839020805490921617905580516004606082018181526101008301909352909182916080808401908036833750505081526532b234ba37b960d11b602080830191909152600060409283018190528681526002825291909120825180519192620006709284929091019062000b7f565b506020828101516001838101919091556040938401516002909301805493151560ff199485161790556000878152600c90925290839020805490921617905580516005606082018181526101208301909352909182916080830160a08036833750505081526636b0b730b3b2b960c91b602080830191909152600060409283018190528581526002825291909120825180519192620007159284929091019062000b7f565b506020828101516001838101919091556040938401516002909301805493151560ff199485161790556000868152600c90925290839020805490921617905580516006606082018181526101408301909352909182916080830160c08036833750505081526430b236b4b760d91b602080830191909152600060409283018190528481526002825291909120825180519192620007b89284929091019062000b7f565b506020828101516001808401919091556040938401516002938401805491151560ff199283161790556000868152600c845285812080549092169092179055600f548882529290915291822080549192909162000819576200081962000be6565b9060005260206000200181905550600f546002600085815260200190815260200160002060000160008154811062000855576200085562000be6565b6000918252602080832090910192909255601054858252600290925260409020805460019081106200088b576200088b62000be6565b906000526020600020018190555060115460026000858152602001908152602001600020600001600281548110620008c757620008c762000be6565b600091825260208083209091019290925560125485825260029092526040902080546003908110620008fd57620008fd62000be6565b9060005260206000200181905550600f546002600084815260200190815260200160002060000160008154811062000939576200093962000be6565b6000918252602080832090910192909255601054848252600290925260409020805460019081106200096f576200096f62000be6565b906000526020600020018190555060115460026000848152602001908152602001600020600001600281548110620009ab57620009ab62000be6565b600091825260208083209091019290925560125484825260029092526040902080546003908110620009e157620009e162000be6565b60009182526020808320909101929092556013548482526002909252604090208054600490811062000a175762000a1762000be6565b9060005260206000200181905550600f546002600083815260200190815260200160002060000160008154811062000a535762000a5362000be6565b60009182526020808320909101929092556010548382526002909252604090208054600190811062000a895762000a8962000be6565b90600052602060002001819055506011546002600083815260200190815260200160002060000160028154811062000ac55762000ac562000be6565b60009182526020808320909101929092556012548382526002909252604090208054600390811062000afb5762000afb62000be6565b60009182526020808320909101929092556013548382526002909252604090208054600490811062000b315762000b3162000be6565b60009182526020808320909101929092556014548382526002909252604090208054600590811062000b675762000b6762000be6565b60009182526020909120015550505050505050505050565b82805482825590600052602060002090810192821562000bbd579160200282015b8281111562000bbd57825182559160200191906001019062000ba0565b5062000bcb92915062000bcf565b5090565b5b8082111562000bcb576000815560010162000bd0565b634e487b7160e01b600052603260045260246000fd5b6157d98062000c0c6000396000f3fe608060405234801561001057600080fd5b50600436106102775760003560e01c80638fbe7fba11610160578063caf8011f116100d8578063e7b064b81161008c578063ecff586211610071578063ecff5862146105a2578063f3c4cda7146105b5578063f7e5c0ad146105c857600080fd5b8063e7b064b81461057c578063e833696c1461058f57600080fd5b8063d57a5e1a116100bd578063d57a5e1a14610541578063d7e15d6914610554578063e2842d791461056757600080fd5b8063caf8011f1461051b578063d07dbd421461052e57600080fd5b80639d9e74251161012f578063b4d6af8a11610114578063b4d6af8a146104e0578063baace33e14610500578063c15d5fd51461050857600080fd5b80639d9e7425146104b6578063a20cc7fa146104cb57600080fd5b80638fbe7fba1461044257806391797e85146104625780639201de5514610475578063937a365e1461049557600080fd5b8063579d02fe116101f35780636998ded7116101c25780636e8eb7bc116101a75780636e8eb7bc146103fc57806377d7f1751461041c578063831f399e1461042f57600080fd5b80636998ded7146103e15780636cccd328146103e957600080fd5b8063579d02fe146103a05780635a9c68db146103b357806360974e62146103c657806367afd1ca146103ce57600080fd5b80632e8a377d1161024a578063337331b41161022f578063337331b41461030a57806333d331671461031f5780634b0626531461037d57600080fd5b80632e8a377d146102ca57806331feb671146102ea57600080fd5b8063108cb5031461027c578063129e02aa146102865780631d219828146102a45780632663edc5146102b7575b600080fd5b6102846105db565b005b61028e6110fe565b60405161029b9190614235565b60405180910390f35b6102846102b236600461438b565b6111d7565b6102846102c5366004614419565b6112aa565b6102dd6102d83660046144bc565b61158c565b60405161029b919061456e565b6102fd6102f83660046144bc565b6117dd565b60405161029b9190614657565b61031261194a565b60405161029b919061466a565b61037061032d36600461467d565b6040805180820190915260008082526020820152506000908152600560209081526040918290208251808401909352805483526001015460ff1615159082015290565b60405161029b9190614696565b61039061038b36600461467d565b6119a2565b604051901515815260200161029b565b6102846103ae3660046146af565b611a37565b6102846103c136600461467d565b611df0565b610312611f2f565b6103906103dc366004614731565b611f85565b610312612051565b6103906103f7366004614788565b6120a7565b61040f61040a36600461467d565b612129565b60405161029b9190614810565b61028461042a366004614823565b6121cf565b61028461043d3660046148af565b612256565b6104556104503660046144bc565b612467565b60405161029b91906148fb565b6102846104703660046146af565b6126a1565b61048861048336600461467d565b6128bd565b60405161029b919061496f565b6104a86104a336600461467d565b612a3c565b60405190815260200161029b565b6104be612c25565b60405161029b9190614982565b6104d3612d3b565b60405161029b91906149db565b6104f36104ee36600461467d565b612eb7565b60405161029b9190614a30565b6102dd612fd3565b610284610516366004614b27565b6131b2565b610284610529366004614bc3565b6133ba565b61028e61053c366004614c85565b613491565b6102fd61054f366004614cd1565b6135ee565b610488610562366004614d3d565b61397b565b61056f613a34565b60405161029b9190614d73565b61028461058a366004614dc8565b613c5f565b61039061059d36600461467d565b613d0e565b6103906105b0366004614e3b565b613da3565b6102846105c3366004614ea4565b613e32565b6103906105d636600461467d565b613eb7565b60006040518060400160405280631c99585960e21b8152602001600015158152509050600060405180604001604052806319591a5d60e21b8152602001600015158152509050600060405180604001604052806564656c65746560d01b8152602001600015158152509050600060405180604001604052806563726561746560d01b8152602001600015158152509050600060405180604001604052806419dc985b9d60da1b815260200160001515815250905060006040518060400160405280657265766f6b6560d01b8152602001600015158152509050631c99585960e21b600f819055508560056000600f5481526020019081526020016000206000820151816000015560208201518160010160006101000a81548160ff0219169083151502179055509050506009600f5490806001815401808255809150506001900390600052602060002001600090919091909150556001600d6000600f54815260200190815260200160002060006101000a81548160ff0219169083151502179055506319591a5d60e21b601181905550846005600060115481526020019081526020016000206000820151816000015560208201518160010160006101000a81548160ff021916908315150217905550905050600960115490806001815401808255809150506001900390600052602060002001600090919091909150556001600d6000601154815260200190815260200160002060006101000a81548160ff0219169083151502179055506563726561746560d01b601081905550826005600060105481526020019081526020016000206000820151816000015560208201518160010160006101000a81548160ff021916908315150217905550905050600960105490806001815401808255809150506001900390600052602060002001600090919091909150556001600d6000601054815260200190815260200160002060006101000a81548160ff0219169083151502179055506564656c65746560d01b601281905550836005600060125481526020019081526020016000206000820151816000015560208201518160010160006101000a81548160ff021916908315150217905550905050600960125490806001815401808255809150506001900390600052602060002001600090919091909150556001600d6000601254815260200190815260200160002060006101000a81548160ff0219169083151502179055506419dc985b9d60da1b601381905550816005600060135481526020019081526020016000206000820151816000015560208201518160010160006101000a81548160ff021916908315150217905550905050600960135490806001815401808255809150506001900390600052602060002001600090919091909150556001600d6000601354815260200190815260200160002060006101000a81548160ff021916908315150217905550657265766f6b6560d01b601481905550806005600060145481526020019081526020016000206000820151816000015560208201518160010160006101000a81548160ff021916908315150217905550905050600960145490806001815401808255809150506001900390600052602060002001600090919091909150556001600d6000601454815260200190815260200160002060006101000a81548160ff0219169083151502179055506000633ab9b2b960e11b905060006532b234ba37b960d11b905060006636b0b730b3b2b960c91b905060006430b236b4b760d91b90506040518060800160405280858152602001848152602001838152602001828152506007906004610b1e929190614062565b506040805160016060820181815260a0830190935290918291608083016020803683375050508152633ab9b2b960e11b602080830191909152600060409283018190528781526002825291909120825180519192610b8192849290910190614062565b506020828101516001838101919091556040938401516002909301805493151560ff199485161790556000888152600c90925290839020805490921617905580516004606082018181526101008301909352909182916080808401908036833750505081526532b234ba37b960d11b602080830191909152600060409283018190528681526002825291909120825180519192610c2392849290910190614062565b506020828101516001838101919091556040938401516002909301805493151560ff199485161790556000878152600c90925290839020805490921617905580516005606082018181526101208301909352909182916080830160a08036833750505081526636b0b730b3b2b960c91b602080830191909152600060409283018190528581526002825291909120825180519192610cc692849290910190614062565b506020828101516001838101919091556040938401516002909301805493151560ff199485161790556000868152600c90925290839020805490921617905580516006606082018181526101408301909352909182916080830160c08036833750505081526430b236b4b760d91b602080830191909152600060409283018190528481526002825291909120825180519192610d6792849290910190614062565b506020828101516001808401919091556040938401516002938401805491151560ff199283161790556000868152600c845285812080549092169092179055600f5488825292909152918220805491929091610dc557610dc5614edc565b9060005260206000200181905550600f5460026000858152602001908152602001600020600001600081548110610dfe57610dfe614edc565b600091825260208083209091019290925560105485825260029092526040902080546001908110610e3157610e31614edc565b906000526020600020018190555060115460026000858152602001908152602001600020600001600281548110610e6a57610e6a614edc565b600091825260208083209091019290925560125485825260029092526040902080546003908110610e9d57610e9d614edc565b9060005260206000200181905550600f5460026000848152602001908152602001600020600001600081548110610ed657610ed6614edc565b600091825260208083209091019290925560105484825260029092526040902080546001908110610f0957610f09614edc565b906000526020600020018190555060115460026000848152602001908152602001600020600001600281548110610f4257610f42614edc565b600091825260208083209091019290925560125484825260029092526040902080546003908110610f7557610f75614edc565b600091825260208083209091019290925560135484825260029092526040902080546004908110610fa857610fa8614edc565b9060005260206000200181905550600f5460026000838152602001908152602001600020600001600081548110610fe157610fe1614edc565b60009182526020808320909101929092556010548382526002909252604090208054600190811061101457611014614edc565b90600052602060002001819055506011546002600083815260200190815260200160002060000160028154811061104d5761104d614edc565b60009182526020808320909101929092556012548382526002909252604090208054600390811061108057611080614edc565b6000918252602080832090910192909255601354838252600290925260409020805460049081106110b3576110b3614edc565b6000918252602080832090910192909255601454838252600290925260409020805460059081106110e6576110e6614edc565b60009182526020909120015550505050505050505050565b60606006805480602002602001604051908101604052809291908181526020016000905b828210156111ce57838290600052602060002001805461114190614ef2565b80601f016020809104026020016040519081016040528092919081815260200182805461116d90614ef2565b80156111ba5780601f1061118f576101008083540402835291602001916111ba565b820191906000526020600020905b81548152906001019060200180831161119d57829003601f168201915b505050505081526020019060010190611122565b50505050905090565b6000818152600260208190526040909120015460ff16156112a65760408051600060608201908152608082018352815260208082018490526001928201929092528351909161122b91600791860190614062565b506000828152600c60209081526040808320805460ff19169055600290915281209061125782826140ad565b5060006001820155600201805460ff191690556040517fef02cde9efe118d87c123fb145caa39996625e3a35bee55b61298e1263890e6b9061129c9083904290614f26565b60405180910390a1505b5050565b601354604051630d999a6560e31b81523091636cccd328916112d4918a918a918891600401614f99565b602060405180830381865afa1580156112f1573d6000803e3d6000fd5b505050506040513d601f19601f820116820180604052508101906113159190614fc0565b61138c5760405162461bcd60e51b815260206004820152603860248201527f5573657220646f6573206e6f74206861766520656e6f756768207065726d697360448201527f73696f6e7320746f20646f207468697320616374696f6e2e000000000000000060648201526084015b60405180910390fd5b6000600185856040516113a0929190614fdd565b90815260200160405180910390206040518060a00160405290816000820180546113c990614ef2565b80601f01602080910402602001604051908101604052809291908181526020018280546113f590614ef2565b80156114425780601f1061141757610100808354040283529160200191611442565b820191906000526020600020905b81548152906001019060200180831161142557829003601f168201915b505050505081526020016001820180548060200260200160405190810160405280929190818152602001828054801561149a57602002820191906000526020600020905b815481526020019060010190808311611486575b50505091835250506002820154602082015260038201546040820152600490910154606090910152905060001960005b82602001515181101561151157826020015181815181106114ed576114ed614edc565b602002602001015185036114ff578091505b8061150981615003565b9150506114ca565b5060008112611556576001868660405161152c929190614fdd565b90815260405160209181900382019020600190810180549182018155600090815291909120018490555b8260036000611566898989613f4c565b815260200190815260200160002081816115809190615029565b50505050505050505050565b6060600080600185856040516115a3929190614fdd565b90815260408051918290036020908101832060010180548083028501830190935282845291908301828280156115f857602002820191906000526020600020905b8154815260200190600101908083116115e4575b505050505090506000815167ffffffffffffffff81111561161b5761161b614297565b60405190808252806020026020018201604052801561166157816020015b6040805180820190915260008152606060208201528152602001906001900390816116395790505b508251909150156117d25760005b82518110156117d0576004600084838151811061168e5761168e614edc565b602002602001015181526020019081526020016000206040518060400160405290816000820154815260200160018201805480602002602001604051908101604052809291908181526020016000905b8282101561178a5783829060005260206000200180546116fd90614ef2565b80601f016020809104026020016040519081016040528092919081815260200182805461172990614ef2565b80156117765780601f1061174b57610100808354040283529160200191611776565b820191906000526020600020905b81548152906001019060200180831161175957829003601f168201915b5050505050815260200190600101906116de565b50505050815250508285815181106117a4576117a4614edc565b602002602001018190525083806117ba90615003565b94505080806117c890615003565b91505061166f565b505b925050505b92915050565b61180f6040518060a0016040528060608152602001606081526020016000815260200160008152602001600081525090565b60018383604051611821929190614fdd565b90815260200160405180910390206040518060a001604052908160008201805461184a90614ef2565b80601f016020809104026020016040519081016040528092919081815260200182805461187690614ef2565b80156118c35780601f10611898576101008083540402835291602001916118c3565b820191906000526020600020905b8154815290600101906020018083116118a657829003601f168201915b505050505081526020016001820180548060200260200160405190810160405280929190818152602001828054801561191b57602002820191906000526020600020905b815481526020019060010190808311611907575b505050505081526020016002820154815260200160038201548152602001600482015481525050905092915050565b6060600780548060200260200160405190810160405280929190818152602001828054801561199857602002820191906000526020600020905b815481526020019060010190808311611984575b5050505050905090565b6000818152600c602052604081205460ff1615611a21577f8d6ea8bed4afafaebcad40e72174583b8bf4969c5d3bc84536051f3939bf9d81604051611a189060208082526014908201527f526f6c6520616c72656164792065786973747321000000000000000000000000604082015260600190565b60405180910390a15b506000908152600c602052604090205460ff1690565b601454604051630d999a6560e31b81523091636cccd32891611a6191899189918791600401614f99565b602060405180830381865afa158015611a7e573d6000803e3d6000fd5b505050506040513d601f19601f82011682018060405250810190611aa29190614fc0565b611b145760405162461bcd60e51b815260206004820152603860248201527f5573657220646f6573206e6f74206861766520656e6f756768207065726d697360448201527f73696f6e7320746f20646f207468697320616374696f6e2e00000000000000006064820152608401611383565b600060018484604051611b28929190614fdd565b90815260200160405180910390206040518060a0016040529081600082018054611b5190614ef2565b80601f0160208091040260200160405190810160405280929190818152602001828054611b7d90614ef2565b8015611bca5780601f10611b9f57610100808354040283529160200191611bca565b820191906000526020600020905b815481529060010190602001808311611bad57829003601f168201915b5050505050815260200160018201805480602002602001604051908101604052809291908181526020018280548015611c2257602002820191906000526020600020905b815481526020019060010190808311611c0e575b505050505081526020016002820154815260200160038201548152602001600482015481525050905060008160200151511115611de85760001960005b826020015151811015611ca65782602001518181518110611c8257611c82614edc565b60200260200101518403611c94578091505b80611c9e81615003565b915050611c5f565b5060008112611da557805b826020015151811015611d5b5760018686604051611cd0929190614fdd565b9081526020016040518091039020600101816001611cee919061511a565b81548110611cfe57611cfe614edc565b906000526020600020015460018787604051611d1b929190614fdd565b90815260200160405180910390206001018281548110611d3d57611d3d614edc565b60009182526020909120015580611d5381615003565b915050611cb1565b5060018585604051611d6e929190614fdd565b9081526020016040518091039020600101805480611d8e57611d8e61512d565b600190038181906000526020600020016000905590555b60036000611db4878787613f4c565b815260200190815260200160002060008082016000611dd391906140ad565b5060006001820155600201805460ff19169055505b505050505050565b6040517fe833696c00000000000000000000000000000000000000000000000000000000815260048101829052309063e833696c906024016020604051808303816000875af1158015611e47573d6000803e3d6000fd5b505050506040513d601f19601f82011682018060405250810190611e6b9190614fc0565b15611e7557600080fd5b6040805180820182528281526001602080830182815260008681526005808452868220955186559151858501805491151560ff19928316179055600980548087019091557f6e1540171b6c0c960b71a7020d9f60077f6af931a8bbf590da0223dacf75c7af01889055878252600d84529086902080549091169093179092555290517ff85b9716ccede5027474296e312317dc3ad82a2a7ae0ab8c146491ef7f4aa08591611f24914290615143565b60405180910390a150565b606060088054806020026020016040519081016040528092919081815260200182805480156119985760200282019190600052602060002090815481526020019060010190808311611984575050505050905090565b6000600a8484604051611f99929190614fdd565b9081526040519081900360200190205460ff168015611fb6575081155b15612023577f8d6ea8bed4afafaebcad40e72174583b8bf4969c5d3bc84536051f3939bf9d8160405161201a9060208082526013908201527f5573657220616c72656164792065786973742100000000000000000000000000604082015260600190565b60405180910390a15b600a8484604051612035929190614fdd565b9081526040519081900360200190205460ff1690509392505050565b606060098054806020026020016040519081016040528092919081815260200182805480156119985760200282019190600052602060002090815481526020019060010190808311611984575050505050905090565b600080600360006120b9888888613f4c565b81526020810191909152604001600090812080549092501561211f5760005b8254811161211d57848360000182815481106120f6576120f6614edc565b90600052602060002001540361210b57600191505b8061211581615003565b9150506120d8565b505b9695505050505050565b6040805160608082018352815260006020820181905291810191909152600082815260026020908152604091829020825181546080938102820184019094526060810184815290939192849284918401828280156121a657602002820191906000526020600020905b815481526020019060010190808311612192575b50505091835250506001820154602082015260029091015460ff16151560409091015292915050565b80516121e2906008906020840190614062565b506000828152600b60209081526040808320805460ff19169055600490915281208181559061221460018301826140ce565b50507fd86f5db2f9298092a310430107bb586f658ab6b654feab992c2cb921526a23e78242600060405161224a9392919061518a565b60405180910390a15050565b6040517f4b062653000000000000000000000000000000000000000000000000000000008152600481018490523090634b062653906024016020604051808303816000875af11580156122ad573d6000803e3d6000fd5b505050506040513d601f19601f820116820180604052508101906122d19190614fc0565b156122db57600080fd5b6040805160608101909152808267ffffffffffffffff81111561230057612300614297565b604051908082528060200260200182016040528015612329578160200160208202803683370190505b508152602080820186905260016040928301526000868152600282529190912082518051919261235e92849290910190614062565b50602082015160018201556040909101516002909101805460ff191691151591909117905560005b818110156123e25760008481526002602052604090208383838181106123ae576123ae614edc565b83546001810185556000948552602094859020919094029290920135919092015550806123da81615003565b915050612386565b506007805460018181019092557fa66cc928b5edb82af9bd49922954155ab7b0942694bea4ce44661d9a8736c688018490556000848152600c60209081526040808320805460ff19169094179093556002905281902090517fef02cde9efe118d87c123fb145caa39996625e3a35bee55b61298e1263890e6b9161129c9142906151dd565b606060006001848460405161247d929190614fdd565b90815260408051918290036020908101832060010180548083028501830190935282845291908301828280156124d257602002820191906000526020600020905b8154815260200190600101908083116124be575b505050505090506000815167ffffffffffffffff8111156124f5576124f5614297565b60405190808252806020026020018201604052801561255957816020015b61254660408051808201825260008082528251606080820185528152602081810183905293810191909152909182015290565b8152602001906001900390816125135790505b508251909150156126995760005b82518110156126975760405180604001604052806004600086858151811061259157612591614edc565b60200260200101518152602001908152602001600020600001548152602001600360006125d88a8a8988815181106125cb576125cb614edc565b6020026020010151613f4c565b81526020019081526020016000206040518060600160405290816000820180548060200260200160405190810160405280929190818152602001828054801561264057602002820191906000526020600020905b81548152602001906001019080831161262c575b50505091835250506001820154602082015260029091015460ff1615156040909101529052825183908390811061267957612679614edc565b6020026020010181905250808061268f90615003565b915050612567565b505b949350505050565b601154604051630d999a6560e31b81523091636cccd328916126cb91899189918791600401614f99565b602060405180830381865afa1580156126e8573d6000803e3d6000fd5b505050506040513d601f19601f8201168201806040525081019061270c9190614fc0565b61277e5760405162461bcd60e51b815260206004820152603760248201527f5573657220646f6573206e6f74206861766520656e6f756768207065726d697360448201527f73696f6e20746f20646f207468697320616374696f6e2e0000000000000000006064820152608401611383565b6040516333d7e8e560e11b815230906367afd1ca906127a69086908690600190600401615282565b6020604051808303816000875af11580156127c5573d6000803e3d6000fd5b505050506040513d601f19601f820116820180604052508101906127e99190614fc0565b6127f257600080fd5b600081815260046020526040902061280b848483613f82565b61281457600080fd5b600180820180549182018155600090815260209020016128358486836152f3565b506001600e61284586868661402d565b60405161285291906153b4565b908152604051908190036020018120805492151560ff19909316929092179091558154907fd86f5db2f9298092a310430107bb586f658ab6b654feab992c2cb921526a23e7906128ac9083904290899089906001906153d0565b60405180910390a150505050505050565b606060005b60208160ff1610801561290e5750828160ff16602081106128e5576128e5614edc565b1a60f81b7fff000000000000000000000000000000000000000000000000000000000000001615155b15612925578061291d81615438565b9150506128c2565b60008160ff1667ffffffffffffffff81111561294357612943614297565b6040519080825280601f01601f19166020018201604052801561296d576020820181803683370190505b509050600091505b60208260ff161080156129c15750838260ff166020811061299857612998614edc565b1a60f81b7fff000000000000000000000000000000000000000000000000000000000000001615155b15612a3557838260ff16602081106129db576129db614edc565b1a60f81b818360ff16815181106129f4576129f4614edc565b60200101907effffffffffffffffffffffffffffffffffffffffffffffffffffffffffffff1916908160001a90535081612a2d81615438565b925050612975565b9392505050565b6040517ff7e5c0ad00000000000000000000000000000000000000000000000000000000815260048101829052600090309063f7e5c0ad906024016020604051808303816000875af1158015612a96573d6000803e3d6000fd5b505050506040513d601f19601f82011682018060405250810190612aba9190614fc0565b15612b2d5760405162461bcd60e51b815260206004820152602960248201527f5265736f7572636520616c7265616479206578697374696e672077697468207460448201527f686973206e616d652100000000000000000000000000000000000000000000006064820152608401611383565b6040805180820182528381528151600080825260208281019094529192830191612b67565b6060815260200190600190039081612b525790505b5090526000838152600460209081526040909120825181558282015180519192612b99926001850192909101906140ec565b5050506000828152600b6020526040808220805460ff1916600190811790915560088054918201815583527ff3f7a9fe364faab93b216da50a3214154f22a0a2b415b23a84c8169e8b636ee301849055517fd86f5db2f9298092a310430107bb586f658ab6b654feab992c2cb921526a23e791612c199185914291615457565b60405180910390a15090565b60095460609060008167ffffffffffffffff811115612c4657612c46614297565b604051908082528060200260200182016040528015612c8b57816020015b6040805180820190915260008082526020820152815260200190600190039081612c645790505b50905060008215612d345760005b83811015612d32576005600060098381548110612cb857612cb8614edc565b6000918252602080832090910154835282810193909352604091820190208151808301909252805482526001015460ff161515918101919091528351849084908110612d0657612d06614edc565b60200260200101819052508180612d1c90615003565b9250508080612d2a90615003565b915050612c99565b505b5092915050565b60075460609060009067ffffffffffffffff811115612d5c57612d5c614297565b604051908082528060200260200182016040528015612da757816020015b6040805160608082018352815260006020808301829052928201528252600019909201910181612d7a5790505b50905060008082511115612eb15760005b600754811015612eaf576002600060078381548110612dd957612dd9614edc565b9060005260206000200154815260200190815260200160002060405180606001604052908160008201805480602002602001604051908101604052809291908181526020018280548015612e4c57602002820191906000526020600020905b815481526020019060010190808311612e38575b50505091835250506001820154602082015260029091015460ff1615156040909101528351849084908110612e8357612e83614edc565b60200260200101819052508180612e9990615003565b9250508080612ea790615003565b915050612db8565b505b50919050565b604080518082019091526000815260606020820152600460008381526020019081526020016000206040518060400160405290816000820154815260200160018201805480602002602001604051908101604052809291908181526020016000905b82821015612fc5578382906000526020600020018054612f3890614ef2565b80601f0160208091040260200160405190810160405280929190818152602001828054612f6490614ef2565b8015612fb15780601f10612f8657610100808354040283529160200191612fb1565b820191906000526020600020905b815481529060010190602001808311612f9457829003601f168201915b505050505081526020019060010190612f19565b505050915250909392505050565b60085460609060009067ffffffffffffffff811115612ff457612ff4614297565b60405190808252806020026020018201604052801561303a57816020015b6040805180820190915260008152606060208201528152602001906001900390816130125790505b5060085490915060009015612eb15760005b600854811015612eaf57600460006008838154811061306d5761306d614edc565b906000526020600020015481526020019081526020016000206040518060400160405290816000820154815260200160018201805480602002602001604051908101604052809291908181526020016000905b8282101561316c5783829060005260206000200180546130df90614ef2565b80601f016020809104026020016040519081016040528092919081815260200182805461310b90614ef2565b80156131585780601f1061312d57610100808354040283529160200191613158565b820191906000526020600020905b81548152906001019060200180831161313b57829003601f168201915b5050505050815260200190600101906130c0565b505050508152505083838151811061318657613186614edc565b6020026020010181905250818061319c90615003565b92505080806131aa90615003565b91505061304c565b601154604051630d999a6560e31b81523091636cccd328916131dc918a918a918891600401614f99565b602060405180830381865afa1580156131f9573d6000803e3d6000fd5b505050506040513d601f19601f8201168201806040525081019061321d9190614fc0565b61328f5760405162461bcd60e51b815260206004820152603760248201527f5573657220646f6573206e6f74206861766520656e6f756768207065726d697360448201527f73696f6e20746f20646f207468697320616374696f6e2e0000000000000000006064820152608401611383565b6040516333d7e8e560e11b815230906367afd1ca906132b79087908790600190600401615282565b6020604051808303816000875af11580156132d6573d6000803e3d6000fd5b505050506040513d601f19601f820116820180604052508101906132fa9190614fc0565b61330357600080fd5b6000828152600460209081526040909120825190916133299160018401918501906140ec565b506000600e61333987878761402d565b60405161334691906153b4565b9081526040805160209281900383018120805460ff19169415159490941790935560008681526004909252812054917fd86f5db2f9298092a310430107bb586f658ab6b654feab992c2cb921526a23e7916133a891849142918b918b9161547f565b60405180910390a15050505050505050565b600184846040516133cc929190614fdd565b908152604051602091819003820190206001908101805491820181556000908152918220018390558190600390613404878787613f4c565b815260208082019290925260400160002082518051919261342a92849290910190614062565b50602082015160018201556040918201516002909101805460ff1916911515919091179055517f6ab4aaa323609455d5ebe60186a77b41af524a434fdf18a1cb642b2b5fc575bd906134839086908690429087906154d3565b60405180910390a150505050565b600f54604051630d999a6560e31b81526060913091636cccd328916134bf9188918891889190600401614f99565b602060405180830381865afa1580156134dc573d6000803e3d6000fd5b505050506040513d601f19601f820116820180604052508101906135009190614fc0565b61350957600080fd5b600082815260046020908152604080832060010180548251818502810185019093528083529193909284015b828210156135e157838290600052602060002001805461355490614ef2565b80601f016020809104026020016040519081016040528092919081815260200182805461358090614ef2565b80156135cd5780601f106135a2576101008083540402835291602001916135cd565b820191906000526020600020905b8154815290600101906020018083116135b057829003601f168201915b505050505081526020019060010190613535565b5050505090509392505050565b6136206040518060a0016040528060608152602001606081526020016000815260200160008152602001600081525090565b6040516333d7e8e560e11b815230906367afd1ca906136489088908890600090600401615282565b6020604051808303816000875af1158015613667573d6000803e3d6000fd5b505050506040513d601f19601f8201168201806040525081019061368b9190614fc0565b1561369557600080fd5b6040518060a0016040528086868080601f0160208091040260200160405190810160405280939291908181526020018383808284376000920191909152505050908252506040805160208681028281018201909352868252928301929091879187918291850190849080828437600092018290525093855250504260208401819052604080850191909152606090930191909152505160019061373b9088908890614fdd565b90815260405190819003602001902081518190613758908261552e565b5060208281015180516137719260018501920190614062565b506040820151600282015560608201516003820155608090910151600490910155600680546001810182556000919091527ff652222313e28459528d920b65115c16c04f3efc82aaedc97be59f3f377c0d3f016137cf8587836152f3565b506001600a86866040516137e4929190614fdd565b908152604051908190036020018120805492151560ff19909316929092179091557f6ab4aaa323609455d5ebe60186a77b41af524a434fdf18a1cb642b2b5fc575bd90613836908790879042906155ee565b60405180910390a160018585604051613850929190614fdd565b90815260200160405180910390206040518060a001604052908160008201805461387990614ef2565b80601f01602080910402602001604051908101604052809291908181526020018280546138a590614ef2565b80156138f25780601f106138c7576101008083540402835291602001916138f2565b820191906000526020600020905b8154815290600101906020018083116138d557829003601f168201915b505050505081526020016001820180548060200260200160405190810160405280929190818152602001828054801561394a57602002820191906000526020600020905b815481526020019060010190808311613936575b5050505050815260200160028201548152602001600382015481526020016004820154815250509050949350505050565b73ffffffffffffffffffffffffffffffffffffffff811660009081526020819052604090208054606091906139af90614ef2565b80601f01602080910402602001604051908101604052809291908181526020018280546139db90614ef2565b8015613a285780601f106139fd57610100808354040283529160200191613a28565b820191906000526020600020905b815481529060010190602001808311613a0b57829003601f168201915b50505050509050919050565b60065460609060009067ffffffffffffffff811115613a5557613a55614297565b604051908082528060200260200182016040528015613ab857816020015b613aa56040518060a0016040528060608152602001606081526020016000815260200160008152602001600081525090565b815260200190600190039081613a735790505b5060065490915060009015612eb15760005b600654811015612eaf57600160068281548110613ae957613ae9614edc565b90600052602060002001604051613b009190615641565b90815260200160405180910390206040518060a0016040529081600082018054613b2990614ef2565b80601f0160208091040260200160405190810160405280929190818152602001828054613b5590614ef2565b8015613ba25780601f10613b7757610100808354040283529160200191613ba2565b820191906000526020600020905b815481529060010190602001808311613b8557829003601f168201915b5050505050815260200160018201805480602002602001604051908101604052809291908181526020018280548015613bfa57602002820191906000526020600020905b815481526020019060010190808311613be6575b505050505081526020016002820154815260200160038201548152602001600482015481525050838381518110613c3357613c33614edc565b60200260200101819052508180613c4990615003565b9250508080613c5790615003565b915050613aca565b8060018585604051613c72929190614fdd565b90815260200160405180910390206001019080519060200190613c96929190614062565b5060036000613ca6868686613f4c565b815260200190815260200160002060008082016000613cc591906140ad565b5060006001820155600201805460ff191690556040517f6ab4aaa323609455d5ebe60186a77b41af524a434fdf18a1cb642b2b5fc575bd906134839086908690429087906156b7565b6000818152600d602052604081205460ff1615613d8d577f8d6ea8bed4afafaebcad40e72174583b8bf4969c5d3bc84536051f3939bf9d81604051613d84906020808252601a908201527f5065726d697373696f6e20616c72656164792065786973747321000000000000604082015260600190565b60405180910390a15b506000908152600d602052604090205460ff1690565b8051600090613db99060069060208501906140ec565b506000600a8585604051613dce929190614fdd565b908152604051908190036020018120805492151560ff19909316929092179091557f6ab4aaa323609455d5ebe60186a77b41af524a434fdf18a1cb642b2b5fc575bd90613e20908690869042906156ff565b60405180910390a15060019392505050565b6040805180820190915281815260016020820152613e526009858561413e565b506000828152600d60209081526040808320805460ff19908116909155600590925280832092835560019290920180549091169055517ff85b9716ccede5027474296e312317dc3ad82a2a7ae0ab8c146491ef7f4aa085906134839083904290615727565b6000818152600b602052604081205460ff1615613f36577f8d6ea8bed4afafaebcad40e72174583b8bf4969c5d3bc84536051f3939bf9d81604051613f2d906020808252601a908201527f5573657220616c726561647920696e20626c61636b6c69737421000000000000604082015260600190565b60405180910390a15b506000908152600b602052604090205460ff1690565b6000818484604051602001613f6393929190615777565b6040516020818303038152906040528051906020012090509392505050565b600080600e613f968686866000015461402d565b604051613fa391906153b4565b9081526040519081900360200190205460ff1690508015612699577f8d6ea8bed4afafaebcad40e72174583b8bf4969c5d3bc84536051f3939bf9d8160405161401d906020808252601a908201527f5573657220616c726561647920696e20626c61636b6c69737421000000000000604082015260600190565b60405180910390a1949350505050565b606061269984848460405160200161404793929190615791565b604051602081830303815290604052805190602001206128bd565b82805482825590600052602060002090810192821561409d579160200282015b8281111561409d578251825591602001919060010190614082565b506140a9929150614179565b5090565b50805460008255906000526020600020908101906140cb9190614179565b50565b50805460008255906000526020600020908101906140cb919061418e565b828054828255906000526020600020908101928215614132579160200282015b828111156141325782518290614122908261552e565b509160200191906001019061410c565b506140a992915061418e565b82805482825590600052602060002090810192821561409d579160200282015b8281111561409d57823582559160200191906001019061415e565b5b808211156140a9576000815560010161417a565b808211156140a95760006141a282826141ab565b5060010161418e565b5080546141b790614ef2565b6000825580601f106141c7575050565b601f0160209004906000526020600020908101906140cb9190614179565b60005b838110156142005781810151838201526020016141e8565b50506000910152565b600081518084526142218160208601602086016141e5565b601f01601f19169290920160200192915050565b6000602080830181845280855180835260408601915060408160051b870101925083870160005b8281101561428a57603f19888603018452614278858351614209565b9450928501929085019060010161425c565b5092979650505050505050565b634e487b7160e01b600052604160045260246000fd5b6040516060810167ffffffffffffffff811182821017156142d0576142d0614297565b60405290565b604051601f8201601f1916810167ffffffffffffffff811182821017156142ff576142ff614297565b604052919050565b600067ffffffffffffffff82111561432157614321614297565b5060051b60200190565b600082601f83011261433c57600080fd5b8135602061435161434c83614307565b6142d6565b82815260059290921b8401810191818101908684111561437057600080fd5b8286015b8481101561211d5780358352918301918301614374565b6000806040838503121561439e57600080fd5b823567ffffffffffffffff8111156143b557600080fd5b6143c18582860161432b565b95602094909401359450505050565b60008083601f8401126143e257600080fd5b50813567ffffffffffffffff8111156143fa57600080fd5b60208301915083602082850101111561441257600080fd5b9250929050565b6000806000806000806080878903121561443257600080fd5b863567ffffffffffffffff8082111561444a57600080fd5b6144568a838b016143d0565b9098509650602089013591508082111561446f57600080fd5b61447b8a838b016143d0565b909650945060408901359350606089013591508082111561449b57600080fd5b5087016060818a0312156144ae57600080fd5b809150509295509295509295565b600080602083850312156144cf57600080fd5b823567ffffffffffffffff8111156144e657600080fd5b6144f2858286016143d0565b90969095509350505050565b6000604083018251845260208084015160408287015282815180855260608801915060608160051b8901019450838301925060005b8181101561456157605f1989870301835261454f868551614209565b95509284019291840191600101614533565b5093979650505050505050565b6000602080830181845280855180835260408601915060408160051b870101925083870160005b8281101561428a57603f198886030184526145b18583516144fe565b94509285019290850190600101614595565b600081518084526020808501945080840160005b838110156145f3578151875295820195908201906001016145d7565b509495945050505050565b6000815160a0845261461360a0850182614209565b90506020830151848203602086015261462c82826145c3565b9150506040830151604085015260608301516060850152608083015160808501528091505092915050565b602081526000612a3560208301846145fe565b602081526000612a3560208301846145c3565b60006020828403121561468f57600080fd5b5035919050565b81518152602080830151151590820152604081016117d7565b6000806000806000606086880312156146c757600080fd5b853567ffffffffffffffff808211156146df57600080fd5b6146eb89838a016143d0565b9097509550602088013591508082111561470457600080fd5b50614711888289016143d0565b96999598509660400135949350505050565b80151581146140cb57600080fd5b60008060006040848603121561474657600080fd5b833567ffffffffffffffff81111561475d57600080fd5b614769868287016143d0565b909450925050602084013561477d81614723565b809150509250925092565b6000806000806060858703121561479e57600080fd5b843567ffffffffffffffff8111156147b557600080fd5b6147c1878288016143d0565b90989097506020870135966040013595509350505050565b60008151606084526147ee60608501826145c3565b9050602083015160208501526040830151151560408501528091505092915050565b602081526000612a3560208301846147d9565b6000806040838503121561483657600080fd5b82359150602083013567ffffffffffffffff81111561485457600080fd5b6148608582860161432b565b9150509250929050565b60008083601f84011261487c57600080fd5b50813567ffffffffffffffff81111561489457600080fd5b6020830191508360208260051b850101111561441257600080fd5b6000806000604084860312156148c457600080fd5b83359250602084013567ffffffffffffffff8111156148e257600080fd5b6148ee8682870161486a565b9497909650939450505050565b60006020808301818452808551808352604092508286019150828160051b87010184880160005b8381101561496157888303603f1901855281518051845287015187840187905261494e878501826147d9565b9588019593505090860190600101614922565b509098975050505050505050565b602081526000612a356020830184614209565b602080825282518282018190526000919060409081850190868401855b828110156149ce576149be848351805182526020908101511515910152565b928401929085019060010161499f565b5091979650505050505050565b6000602080830181845280855180835260408601915060408160051b870101925083870160005b8281101561428a57603f19888603018452614a1e8583516147d9565b94509285019290850190600101614a02565b602081526000612a3560208301846144fe565b6000601f8381840112614a5557600080fd5b82356020614a6561434c83614307565b82815260059290921b85018101918181019087841115614a8457600080fd5b8287015b84811015614b1b57803567ffffffffffffffff80821115614aa95760008081fd5b818a0191508a603f830112614abe5760008081fd5b85820135604082821115614ad457614ad4614297565b614ae5828b01601f191689016142d6565b92508183528c81838601011115614afc5760008081fd5b8181850189850137506000908201870152845250918301918301614a88565b50979650505050505050565b60008060008060008060808789031215614b4057600080fd5b863567ffffffffffffffff80821115614b5857600080fd5b614b648a838b016143d0565b90985096506020890135915080821115614b7d57600080fd5b614b898a838b016143d0565b9096509450604089013593506060890135915080821115614ba957600080fd5b50614bb689828a01614a43565b9150509295509295509295565b60008060008060608587031215614bd957600080fd5b843567ffffffffffffffff80821115614bf157600080fd5b614bfd888389016143d0565b9096509450602087013593506040870135915080821115614c1d57600080fd5b9086019060608289031215614c3157600080fd5b614c396142ad565b823582811115614c4857600080fd5b614c548a82860161432b565b8252506020830135602082015260408301359250614c7183614723565b604081019290925250939692955090935050565b600080600060408486031215614c9a57600080fd5b833567ffffffffffffffff811115614cb157600080fd5b614cbd868287016143d0565b909790965060209590950135949350505050565b60008060008060408587031215614ce757600080fd5b843567ffffffffffffffff80821115614cff57600080fd5b614d0b888389016143d0565b90965094506020870135915080821115614d2457600080fd5b50614d318782880161486a565b95989497509550505050565b600060208284031215614d4f57600080fd5b813573ffffffffffffffffffffffffffffffffffffffff81168114612a3557600080fd5b6000602080830181845280855180835260408601915060408160051b870101925083870160005b8281101561428a57603f19888603018452614db68583516145fe565b94509285019290850190600101614d9a565b60008060008060608587031215614dde57600080fd5b843567ffffffffffffffff80821115614df657600080fd5b614e02888389016143d0565b9096509450602087013593506040870135915080821115614e2257600080fd5b50614e2f8782880161432b565b91505092959194509250565b600080600060408486031215614e5057600080fd5b833567ffffffffffffffff80821115614e6857600080fd5b614e74878388016143d0565b90955093506020860135915080821115614e8d57600080fd5b50614e9a86828701614a43565b9150509250925092565b600080600060408486031215614eb957600080fd5b833567ffffffffffffffff811115614ed057600080fd5b614cbd8682870161486a565b634e487b7160e01b600052603260045260246000fd5b600181811c90821680614f0657607f821691505b602082108103612eb157634e487b7160e01b600052602260045260246000fd5b606081526000614f4e6060830160088152673232b632ba34b7b760c11b602082015260400190565b8281036020840152614f6081866147d9565b9150508260408301529392505050565b81835281816020850137506000828201602090810191909152601f909101601f19169091010190565b606081526000614fad606083018688614f70565b6020830194909452506040015292915050565b600060208284031215614fd257600080fd5b8151612a3581614723565b8183823760009101908152919050565b634e487b7160e01b600052601160045260246000fd5b60006001820161501557615015614fed565b5060010190565b600081356117d781614723565b8135601e1983360301811261503d57600080fd5b8201803567ffffffffffffffff81111561505657600080fd5b602080830192508160051b360383131561506f57600080fd5b6801000000000000000082111561508857615088614297565b8354828555808310156150be5760008581528281208481019083015b808210156150ba578282556001820191506150a4565b5050505b5060008481526020902060005b838110156150e557843582820155938201936001016150cb565b50508401356001840155506112a690506151016040840161501c565b6002830160ff1981541660ff8315151681178255505050565b808201808211156117d7576117d7614fed565b634e487b7160e01b600052603160045260246000fd5b60808152600061516b60808301600881526731b932b0ba34b7b760c11b602082015260400190565b8454602084015260019094015460ff1615156040830152506060015290565b60a0815260006151b260a0830160088152673232b632ba34b7b760c11b602082015260400190565b6020838101969096526040830194909452508083036060820152600083529015156080909101520190565b60608152600061520560608301600881526731b932b0ba34b7b760c11b602082015260400190565b60208382038185015260608201606083528087548083526080850191508860005283600020925060005b8181101561524b5783548352600193840193928501920161522f565b505060018801548385015260ff600289015416925061526e604085018415159052565b809450505050508260408301529392505050565b604081526000615296604083018587614f70565b90508215156020830152949350505050565b601f8211156152ee57600081815260208120601f850160051c810160208610156152cf5750805b601f850160051c820191505b81811015611de8578281556001016152db565b505050565b67ffffffffffffffff83111561530b5761530b614297565b61531f836153198354614ef2565b836152a8565b6000601f841160018114615353576000851561533b5750838201355b600019600387901b1c1916600186901b1783556153ad565b600083815260209020601f19861690835b828110156153845786850135825560209485019460019092019101615364565b50868210156153a15760001960f88860031b161c19848701351681555b505060018560011b0183555b5050505050565b600082516153c68184602087016141e5565b9190910192915050565b60a08152601460a08201527f626c61636b6c6973742d757365722d616464656400000000000000000000000060c082015285602082015284604082015260e06060820152600061542460e083018587614f70565b905082151560808301529695505050505050565b600060ff821660ff810361544e5761544e614fed565b60010192915050565b60a0815260006151b260a08301600881526731b932b0ba34b7b760c11b602082015260400190565b60a08152601660a08201527f626c61636b6c6973742d757365722d72656d6f7665640000000000000000000060c082015285602082015284604082015260e06060820152600061542460e083018587614f70565b60808152601660808201527f757064617465642d7265736f757263652d61646465640000000000000000000060a082015260c06020820152600061551b60c083018688614f70565b6040830194909452506060015292915050565b815167ffffffffffffffff81111561554857615548614297565b61555c816155568454614ef2565b846152a8565b602080601f83116001811461559157600084156155795750858301515b600019600386901b1c1916600185901b178555611de8565b600085815260208120601f198616915b828110156155c0578886015182559484019460019091019084016155a1565b50858210156155de5787850151600019600388901b60f8161c191681555b5050505050600190811b01905550565b60808152600061561660808301600881526731b932b0ba34b7b760c11b602082015260400190565b8281036020840152615629818688614f70565b91505082604083015260006060830152949350505050565b600080835461564f81614ef2565b60018281168015615667576001811461567c576156ab565b60ff19841687528215158302870194506156ab565b8760005260208060002060005b858110156156a25781548a820152908401908201615689565b50505082870194505b50929695505050505050565b60808152601860808201527f757064617465642d7265736f757263652d72656d6f766564000000000000000060a082015260c06020820152600061551b60c083018688614f70565b6080815260006156166080830160088152673232b632ba34b7b760c11b602082015260400190565b60808152600061574f6080830160088152673232b632ba34b7b760c11b602082015260400190565b905061576a6020830185805182526020908101511515910152565b8260608301529392505050565b838152818360208301376000910160200190815292915050565b8284823790910190815260200191905056fea26469706673582212209bfa6abc295562db7601d3e5f7a7e987be40e268a067edf09e7d8fb066b8ba0a64736f6c63430008110033",
  "immutableReferences": {},
  "source": "// SPDX-License-Identifier: GPL-3.0\n\npragma solidity >=0.8.0 <0.9.0;\n\nimport \"./IAccessControlList.sol\";\nimport \"./Utilities.sol\";\n\n/**\n * @title AccessControlList\n */\ncontract AccessControlList is IAccessControlList, Utilities {\n    constructor() {}\n\n    // USERS FUNCTIONS\n    // Check whether the user has the permission or not\n    function checkPermission(\n        string calldata _ebsiDID,\n        bytes32 _resourceID,\n        bytes32 _permission\n    ) external view override returns (bool) {\n        Role storage _userRole = userResourceToRoleData[\n            createResourceToRoleHash(_ebsiDID, _resourceID)\n        ];\n        bool hasPermission = false;\n        if (_userRole.permissions.length > 0) {\n            for (uint256 i = 0; i <= _userRole.permissions.length; i++) {\n                if (_userRole.permissions[i] == _permission) {\n                    hasPermission = true;\n                }\n            }\n        }\n        return hasPermission;\n    }\n\n    // Check if user has already been created, using an ebsiDID and cycling through the entire list of created users (only ebsiDID must be stored)\n    function isUserAlreadyCreated(\n        string calldata ebsiDID,\n        bool skipSendEvent\n    ) external override returns (bool) {\n        if (existingUsers[ebsiDID] && !skipSendEvent) {\n            emit CustomError(\"User already exist!\");\n        }\n        return existingUsers[ebsiDID];\n    }\n\n    // Passing a name will create a new resource - passing name to keccak to have a uniqueID, the struct also have a blacklist\n    function createUser(\n        string calldata ebsiDID,\n        bytes32[] calldata resourcesNames\n    ) external override returns (User memory user) {\n        require(!this.isUserAlreadyCreated(ebsiDID, false));\n        users[ebsiDID] = User(\n            ebsiDID,\n            resourcesNames,\n            block.timestamp,\n            block.timestamp,\n            0\n        );\n        usersArray.push(ebsiDID);\n        existingUsers[ebsiDID] = true;\n\n        emit UserUpdated('creation', ebsiDID, block.timestamp, '');\n        return users[ebsiDID];\n    }\n\n    // Remove user from the blockchain (from now on using delete)\n    function removeUser(\n        string calldata ebsiDID,\n        string[] memory newUsersArray\n    ) external override returns (bool removed) {\n        usersArray = newUsersArray;\n        existingUsers[ebsiDID] = false;\n        emit UserUpdated('deletion', ebsiDID, block.timestamp, '');\n        return true;\n    }\n\n    // Get all ebsiDIDs without relative users data\n    function getAllEbsiDIDs() external virtual view override returns (string[] memory ebsiDIDs) {\n        return usersArray;\n    }\n\n    // Get a single user by his ebsiDID\n    function getUser(\n        string calldata ebsiDID\n    ) public view override returns (User memory) {\n        return users[ebsiDID];\n    }\n\n    // Get all Roles of a user\n    function getAllUserRoles(\n        string calldata ebsiDID\n    ) external view override returns (ResourcesRoles[] memory) {\n        bytes32[] memory resourcesHashes = users[ebsiDID].resourcesHashes;\n        ResourcesRoles[] memory resourcesRoles = new ResourcesRoles[](\n            resourcesHashes.length\n        );\n        if (resourcesHashes.length > 0) {\n            for (uint256 i = 0; i < resourcesHashes.length; i++) {\n                resourcesRoles[i] = ResourcesRoles({\n                    role: userResourceToRoleData[\n                        createResourceToRoleHash(ebsiDID, resourcesHashes[i])\n                    ],\n                    resourceName: resourceIDToResourceData[resourcesHashes[i]]\n                        .name\n                });\n            }\n        }\n        return resourcesRoles;\n    }\n\n    // Get all the users (cycle through the entire list of users, returning al ist of ebsiDID)\n    function getAllUsers() external view override returns (User[] memory) {\n        User[] memory tempUsers = new User[](usersArray.length);\n        uint tempUsersCounter = 0;\n        if (usersArray.length > 0) {\n            for (uint256 i = 0; i < usersArray.length; i++) {\n                tempUsers[tempUsersCounter] = users[usersArray[i]];\n                tempUsersCounter++;\n            }\n        }\n\n        return tempUsers;\n    }\n\n    // Check if a user is already in blacklist\n    function isUserAlreadyInBlacklist(\n        string calldata ebsiDID,\n        Resource storage resource\n    ) internal returns (bool) {\n        bool isAlreadyBlacklisted = blacklistMapping[\n            Utilities.createStringHashFrom2Args(ebsiDID, resource.name)\n        ];\n        if (isAlreadyBlacklisted) {\n            emit CustomError(\"User already in blacklist!\");\n        }\n        return isAlreadyBlacklisted;\n    }\n\n    function assignResourceToUser(string calldata ebsiDID, bytes32 resourceName, Role memory role) external override {\n        users[ebsiDID].resourcesHashes.push(resourceName);\n        userResourceToRoleData[createResourceToRoleHash(ebsiDID, resourceName)] = role;\n\n        emit UserUpdated(\n            'updated-resource-added',\n            ebsiDID,\n            block.timestamp,\n            resourceName\n        );\n    }\n\n    function removeResourceFromUser(string calldata ebsiDID, bytes32 resourceName, bytes32[] memory newResourcesNames) external override {\n        users[ebsiDID].resourcesHashes = newResourcesNames;\n        delete userResourceToRoleData[createResourceToRoleHash(ebsiDID, resourceName)];\n\n        emit UserUpdated(\n            'updated-resource-removed',\n            ebsiDID,\n            block.timestamp,\n            resourceName\n        );\n    }\n\n    // RESOURCES FUNCTIONS\n    // Get a resource by passing its ID\n    function getResource(\n        bytes32 resourceHash\n    ) external view override returns (Resource memory) {\n        return resourceIDToResourceData[resourceHash];\n    }\n\n    // Check if a resource has already been created and if so it will return that resource\n    function isResourceAlreadyCreated(\n        bytes32 name\n    ) external override returns (bool) {\n        if (existingResources[name]) {\n            emit CustomError(\"User already in blacklist!\");\n        }\n        return existingResources[name];\n    }\n\n    // Create a resource passing a name\n    function createResource(\n        bytes32 name\n        // string calldata ebsiDID\n    ) external override returns (bytes32 resourceHash) {\n        require(\n            !this.isResourceAlreadyCreated(name),\n            \"Resource already existing with this name!\"\n        );\n        resourceIDToResourceData[name] = Resource({\n            name: name,\n            blacklist: new string[](0)\n        });\n        existingResources[name] = true;\n        createdResourcesArray.push(name);\n\n        // if (bytes(ebsiDID).length != 0) {\n        //     users[ebsiDID].resourcesHashes.push(name);\n        //     userResourceToRoleData[\n        //         createResourceToRoleHash(ebsiDID, name)\n        //     ] = roles[\"admin\"];\n\n        //     // emit UserUpdated(\n        //     //     ''\n        //     //     block.timestamp,\n        //     //     ebsiDID,\n        //     //     \"\",\n        //     //     \"\",\n        //     //     \"\"\n        //     // );\n        // }\n\n        emit ResourceUpdated(\"creation\", name, block.timestamp, \"\", false);\n        return name;\n    }\n\n    // Here you cannot remove the resource from each user during this function because it could run out of gas\n    // Then at the next user edit, the resource will be removed from him\n    function deleteResource(\n        bytes32 name,\n        bytes32[] memory newCreatedResourcesArray\n    ) external override {\n        createdResourcesArray = newCreatedResourcesArray;\n        existingResources[name] = false;\n        delete resourceIDToResourceData[name];\n        emit ResourceUpdated(\"deletion\", name, block.timestamp, \"\", false);\n    }\n\n    function getAllResourcesInBytes32()\n        external\n        view\n        override\n        returns (bytes32[] memory)\n    {\n        return createdResourcesArray;\n    }\n\n    // Get all the resources createcd - cycling through the entire list of UIDs\n    function getAllResources()\n        external\n        view\n        override\n        returns (Resource[] memory)\n    {\n        Resource[] memory tempResources = new Resource[](\n            createdResourcesArray.length\n        );\n        uint tempResourcesCounter = 0;\n        if (createdResourcesArray.length > 0) {\n            for (uint256 i = 0; i < createdResourcesArray.length; i++) {\n                tempResources[tempResourcesCounter] = resourceIDToResourceData[\n                    createdResourcesArray[i]\n                ];\n                tempResourcesCounter++;\n            }\n        }\n        return tempResources;\n    }\n\n    // Get all user resources\n    function getAllUserResources(\n        string calldata ebsiDID\n    ) external view override returns (Resource[] memory) {\n        uint tempResourcesCounter = 0;\n        bytes32[] memory resourcesHashes = users[ebsiDID].resourcesHashes;\n        Resource[] memory tempResources = new Resource[](\n            resourcesHashes.length\n        );\n        if (resourcesHashes.length > 0) {\n            for (uint256 i = 0; i < resourcesHashes.length; i++) {\n                tempResources[tempResourcesCounter] = resourceIDToResourceData[\n                    resourcesHashes[i]\n                ];\n                tempResourcesCounter++;\n            }\n        }\n        return tempResources;\n    }\n\n    // Get all users in a resource's blacklist\n    function getAllUsersInBlacklist(\n        string calldata ebsiDID,\n        bytes32 resourceHash\n    ) external view override returns (string[] memory tempUsers) {\n        require(this.checkPermission(ebsiDID, resourceHash, Data.read));\n\n        return resourceIDToResourceData[resourceHash].blacklist;\n    }\n\n    // Add a user to a resource's blacklist\n    function addUserToBlackList(\n        string calldata requester,\n        string calldata ebsiDID,\n        bytes32 resourceUID\n    ) external override {\n        require(\n            this.checkPermission(requester, resourceUID, Data.edit),\n            \"User does not have enough permission to do this action.\"\n        );\n        require(this.isUserAlreadyCreated(ebsiDID, true));\n        Resource storage resource = resourceIDToResourceData[resourceUID];\n        require(isUserAlreadyInBlacklist(ebsiDID, resource));\n        \n        resource.blacklist.push(ebsiDID);\n        blacklistMapping[\n            Utilities.createStringHashFrom2Args(ebsiDID, resourceUID)\n        ] = true;\n        bytes32 resourceName = resource.name;\n\n        emit ResourceUpdated(\n            \"blacklist-user-added\",\n            resourceName,\n            block.timestamp,\n            ebsiDID,\n            true\n        );\n    }\n\n    // Remove a user from a resource's blacklist\n    function removeUserFromBlacklist(\n        string calldata requester,\n        string calldata ebsiDID,\n        bytes32 resourceUID,\n        string[] memory newBlacklist\n    ) external override {\n        require(\n            this.checkPermission(requester, resourceUID, Data.edit),\n            \"User does not have enough permission to do this action.\"\n        );\n        require(this.isUserAlreadyCreated(ebsiDID, true));\n        Resource storage resource = resourceIDToResourceData[resourceUID];\n        resource.blacklist = newBlacklist;\n        blacklistMapping[\n            Utilities.createStringHashFrom2Args(ebsiDID, resourceUID)\n        ] = false;\n        bytes32 resourceName = resourceIDToResourceData[resourceUID].name;\n        emit ResourceUpdated(\n            \"blacklist-user-removed\",\n            resourceName,\n            block.timestamp,\n            ebsiDID,\n            false\n        );\n    }\n\n    // ROLES FUNCTIONS\n    // Get all roles available created by the admins\n    function getAllAvailableRoles()\n        external\n        view\n        override\n        returns (Role[] memory)\n    {\n        Role[] memory availableRoles = new Role[](createdRolesArray.length);\n        uint availableRolesCounter = 0;\n        if (availableRoles.length > 0) {\n            for (uint256 i = 0; i < createdRolesArray.length; i++) {\n                availableRoles[availableRolesCounter] = roles[\n                    createdRolesArray[i]\n                ];\n                availableRolesCounter++;\n            }\n        }\n        return availableRoles;\n    }\n\n    // Get a role from the mapping\n    function getRole(\n        bytes32 roleID\n    ) external view override returns (Role memory) {\n        return roles[roleID];\n    }\n\n    // Only callable from who has grant permission - It shows before which role user have and ask for permission before submitting this request\n    function assignRole(\n        string calldata requester,\n        string calldata ebsiDID,\n        bytes32 resourceUID,\n        Role calldata role\n    ) external override {\n        require(\n            this.checkPermission(requester, resourceUID, Data.grant),\n            \"User does not have enough permissions to do this action.\"\n        );\n\n        User memory user = users[ebsiDID];\n        int256 resourceIndex = -1;\n        for (uint256 i = 0; i < user.resourcesHashes.length; i++) {\n            if (resourceUID == user.resourcesHashes[i]) {\n                resourceIndex = int256(i);\n            }\n        }\n        if (resourceIndex >= 0) {\n            // Need to use this instead of the variable because here it's needed to assign the new value to the storage variable\n            users[ebsiDID].resourcesHashes.push(resourceUID);\n        }\n\n        // Not finding a way to limit a bug where an user can revoke a role to a resource by simply assigning a role with less permissions\n        userResourceToRoleData[\n            createResourceToRoleHash(ebsiDID, resourceUID)\n        ] = role;\n    }\n\n    // Only callable from who has revoke permissions\n    function revokeRole(\n        string calldata requester,\n        string calldata ebsiDID,\n        bytes32 resourceUID\n    ) external override {\n        require(\n            this.checkPermission(requester, resourceUID, Data.revoke),\n            \"User does not have enough permissions to do this action.\"\n        );\n        User memory user = users[ebsiDID];\n        if (user.resourcesHashes.length > 0) {\n            int256 resourceIndex = -1;\n            for (uint256 i = 0; i < user.resourcesHashes.length; i++) {\n                if (resourceUID == user.resourcesHashes[i]) {\n                    resourceIndex = int256(i);\n                }\n            }\n            if (resourceIndex >= 0) {\n                for (\n                    uint256 j = uint256(resourceIndex);\n                    j < user.resourcesHashes.length;\n                    j++\n                ) {\n                    users[ebsiDID].resourcesHashes[j] = users[ebsiDID]\n                        .resourcesHashes[j + 1];\n                }\n                users[ebsiDID].resourcesHashes.pop();\n            }\n            // Need to use this instead of the variable because here it's needed to assign the new value to the storage variable\n            delete userResourceToRoleData[\n                createResourceToRoleHash(ebsiDID, resourceUID)\n            ];\n        }\n    }\n\n    // Check whether the role has been already created\n    function isRoleAlreadyCreated(\n        bytes32 roleName\n    ) external override returns (bool) {\n        if(existingRoles[roleName]) {\n            emit CustomError(\"Role already exists!\");\n        }\n        return existingRoles[roleName];\n    }\n\n    // Create a custom role with permissions (usefull if admin has created custom permissions or else)\n    function createCustomRole(\n        bytes32 roleName,\n        bytes32[] calldata permissions\n    ) external override {\n        require(!this.isRoleAlreadyCreated(roleName));\n        roles[roleName] = Role({\n            permissions: new bytes32[](permissions.length),\n            name: roleName,\n            isCustom: true\n        });\n        for (uint256 i = 0; i < permissions.length; i++) {\n            roles[roleName].permissions.push(permissions[i]);\n        }\n        createdRolesArray.push(roleName);\n        existingRoles[roleName] = true;\n        emit UpdatedRole(\"creation\", roles[roleName], block.timestamp);\n    }\n\n    // Delete a custom role\n    function deleteCustomRole(\n        bytes32[] memory newCreatedRolesArray,\n        bytes32 roleName\n    ) external override {\n        if(roles[roleName].isCustom) {\n            Role memory oldRole = Role({\n                name: roleName,\n                permissions: new bytes32[](0),\n                isCustom: true\n            });\n            createdRolesArray = newCreatedRolesArray;\n            existingRoles[roleName] = false;\n            delete roles[roleName];\n            emit UpdatedRole(\"deletion\", oldRole, block.timestamp);\n        }\n    }\n\n    // Returns the entire created permissions array in bytes32 for internal purpouse\n    function getAllRolesInBytes32()\n        external\n        view\n        override\n        returns (bytes32[] memory)\n    {\n        return createdRolesArray;\n    }\n\n    // PERMISSIONS FUNCTIONS\n    // Get all the available permissions (usefull for a dropdown to choose from) - cycling through entire availablePermissions list\n    function getAllAvailablePermissions()\n        external\n        view\n        override\n        returns (PermissionStruct[] memory)\n    {\n        uint permissionsLength = createdPermissionsArray.length;\n        PermissionStruct[] memory availablePermissions = new PermissionStruct[](\n            permissionsLength\n        );\n        uint availablePermissionsCounter = 0;\n        if (permissionsLength > 0) {\n            for (uint i = 0; i < permissionsLength; i++) {\n                availablePermissions[\n                    availablePermissionsCounter\n                ] = permissionIDToPermissionData[createdPermissionsArray[i]];\n                availablePermissionsCounter++;\n            }\n        }\n        return availablePermissions;\n    }\n\n    function getPermission(\n        bytes32 permissionID\n    ) external view override returns (PermissionStruct memory) {\n        return permissionIDToPermissionData[permissionID];\n    }\n\n    // Check if a permission already exists\n    function isPermissionAlreadyCreated(\n        bytes32 permissionName\n    ) external override returns (bool) {\n        if(existingPermissions[permissionName]) {\n            emit CustomError(\"Permission already exists!\");\n        }\n        return existingPermissions[permissionName];\n    }\n\n    // Create a custom permission (usefull for creating then a custom role)\n    function createCustomPermission(bytes32 name) external override {\n        require(!this.isPermissionAlreadyCreated(name));\n        permissionIDToPermissionData[name] = PermissionStruct({\n            permission: name,\n            isCustom: true\n        });\n        createdPermissionsArray.push(name);\n        existingPermissions[name] = true;\n        emit UpdatedPermission(\n            \"creation\",\n            permissionIDToPermissionData[name],\n            block.timestamp\n        );\n    }\n\n    // Returns the entire created permissions array in bytes32 for internal purpouse\n    function getAllPermissionsInBytes32()\n        external\n        view\n        override\n        returns (bytes32[] memory)\n    {\n        return createdPermissionsArray;\n    }\n\n    // Delete a custom permission - Cannot put here more than this operation because it would exceed the maximum gas fee\n    function deleteCustomPermission(\n        bytes32[] calldata newCreatedPermissionsArray,\n        bytes32 name\n    ) external override {\n        PermissionStruct memory oldPermission = PermissionStruct({\n            permission: name,\n            isCustom: true\n        });\n        createdPermissionsArray = newCreatedPermissionsArray;\n        existingPermissions[name] = false;\n        delete permissionIDToPermissionData[name];\n        emit UpdatedPermission(\"deletion\", oldPermission, block.timestamp);\n    }\n}\n",
  "sourcePath": "/Users/alessandropucci/Desktop/progetti personali/ebsi-access-control/ebsi-access-control/ebsi-access-control/contracts/AccessControlList.sol",
  "compiler": {
    "name": "solc",
    "version": "0.8.17+commit.8df45f5f.Emscripten.clang"
  },
  "schemaVersion": "3.4.16",
  "updatedAt": "2024-01-21T19:55:51.190Z",
  "networkType": "ethereum",
  "devdoc": {
    "kind": "dev",
    "methods": {},
    "title": "AccessControlList",
    "version": 1
  },
  "userdoc": {
    "kind": "user",
    "methods": {},
    "version": 1
  }
}