{
  "contractName": "Data",
  "abi": [
    {
      "inputs": [],
      "stateMutability": "nonpayable",
      "type": "constructor"
    },
    {
      "anonymous": false,
      "inputs": [
        {
          "indexed": false,
          "internalType": "string",
          "name": "message",
          "type": "string"
        }
      ],
      "name": "CustomError",
      "type": "event"
    },
    {
      "anonymous": false,
      "inputs": [
        {
          "indexed": false,
          "internalType": "string",
          "name": "eventType",
          "type": "string"
        },
        {
          "indexed": false,
          "internalType": "bytes32",
          "name": "name",
          "type": "bytes32"
        },
        {
          "indexed": false,
          "internalType": "uint256",
          "name": "lastUpdated",
          "type": "uint256"
        },
        {
          "indexed": false,
          "internalType": "string",
          "name": "listedUser",
          "type": "string"
        },
        {
          "indexed": false,
          "internalType": "bool",
          "name": "isBlacklisted",
          "type": "bool"
        }
      ],
      "name": "ResourceUpdated",
      "type": "event"
    },
    {
      "anonymous": false,
      "inputs": [
        {
          "indexed": false,
          "internalType": "string",
          "name": "eventType",
          "type": "string"
        },
        {
          "components": [
            {
              "internalType": "bytes32",
              "name": "permission",
              "type": "bytes32"
            },
            {
              "internalType": "bool",
              "name": "isCustom",
              "type": "bool"
            }
          ],
          "indexed": false,
          "internalType": "struct Data.PermissionStruct",
          "name": "permission",
          "type": "tuple"
        },
        {
          "indexed": false,
          "internalType": "uint256",
          "name": "updateTime",
          "type": "uint256"
        }
      ],
      "name": "UpdatedPermission",
      "type": "event"
    },
    {
      "anonymous": false,
      "inputs": [
        {
          "indexed": false,
          "internalType": "string",
          "name": "eventType",
          "type": "string"
        },
        {
          "components": [
            {
              "internalType": "bytes32[]",
              "name": "permissions",
              "type": "bytes32[]"
            },
            {
              "internalType": "bytes32",
              "name": "name",
              "type": "bytes32"
            },
            {
              "internalType": "bool",
              "name": "isCustom",
              "type": "bool"
            }
          ],
          "indexed": false,
          "internalType": "struct Data.Role",
          "name": "role",
          "type": "tuple"
        },
        {
          "indexed": false,
          "internalType": "uint256",
          "name": "updateTime",
          "type": "uint256"
        }
      ],
      "name": "UpdatedRole",
      "type": "event"
    },
    {
      "anonymous": false,
      "inputs": [
        {
          "indexed": false,
          "internalType": "string",
          "name": "eventType",
          "type": "string"
        },
        {
          "indexed": false,
          "internalType": "string",
          "name": "ebsiDID",
          "type": "string"
        },
        {
          "indexed": false,
          "internalType": "uint256",
          "name": "updatedTime",
          "type": "uint256"
        },
        {
          "indexed": false,
          "internalType": "bytes32",
          "name": "addedResource",
          "type": "bytes32"
        }
      ],
      "name": "UserUpdated",
      "type": "event"
    },
    {
      "inputs": [],
      "name": "initRoles",
      "outputs": [],
      "stateMutability": "nonpayable",
      "type": "function"
    }
  ],
  "bytecode": "0x60806040523480156200001157600080fd5b506200001c62000022565b62000bfc565b60006040518060400160405280631c99585960e21b8152602001600015158152509050600060405180604001604052806319591a5d60e21b8152602001600015158152509050600060405180604001604052806564656c65746560d01b8152602001600015158152509050600060405180604001604052806563726561746560d01b8152602001600015158152509050600060405180604001604052806419dc985b9d60da1b815260200160001515815250905060006040518060400160405280657265766f6b6560d01b8152602001600015158152509050631c99585960e21b600f819055508560056000600f5481526020019081526020016000206000820151816000015560208201518160010160006101000a81548160ff0219169083151502179055509050506009600f5490806001815401808255809150506001900390600052602060002001600090919091909150556001600d6000600f54815260200190815260200160002060006101000a81548160ff0219169083151502179055506319591a5d60e21b601181905550846005600060115481526020019081526020016000206000820151816000015560208201518160010160006101000a81548160ff021916908315150217905550905050600960115490806001815401808255809150506001900390600052602060002001600090919091909150556001600d6000601154815260200190815260200160002060006101000a81548160ff0219169083151502179055506563726561746560d01b601081905550826005600060105481526020019081526020016000206000820151816000015560208201518160010160006101000a81548160ff021916908315150217905550905050600960105490806001815401808255809150506001900390600052602060002001600090919091909150556001600d6000601054815260200190815260200160002060006101000a81548160ff0219169083151502179055506564656c65746560d01b601281905550836005600060125481526020019081526020016000206000820151816000015560208201518160010160006101000a81548160ff021916908315150217905550905050600960125490806001815401808255809150506001900390600052602060002001600090919091909150556001600d6000601254815260200190815260200160002060006101000a81548160ff0219169083151502179055506419dc985b9d60da1b601381905550816005600060135481526020019081526020016000206000820151816000015560208201518160010160006101000a81548160ff021916908315150217905550905050600960135490806001815401808255809150506001900390600052602060002001600090919091909150556001600d6000601354815260200190815260200160002060006101000a81548160ff021916908315150217905550657265766f6b6560d01b601481905550806005600060145481526020019081526020016000206000820151816000015560208201518160010160006101000a81548160ff021916908315150217905550905050600960145490806001815401808255809150506001900390600052602060002001600090919091909150556001600d6000601454815260200190815260200160002060006101000a81548160ff0219169083151502179055506000633ab9b2b960e11b905060006532b234ba37b960d11b905060006636b0b730b3b2b960c91b905060006430b236b4b760d91b905060405180608001604052808581526020018481526020018381526020018281525060079060046200056792919062000b7f565b506040805160016060820181815260a0830190935290918291608083016020803683375050508152633ab9b2b960e11b602080830191909152600060409283018190528781526002825291909120825180519192620005cc9284929091019062000b7f565b506020828101516001838101919091556040938401516002909301805493151560ff199485161790556000888152600c90925290839020805490921617905580516004606082018181526101008301909352909182916080808401908036833750505081526532b234ba37b960d11b602080830191909152600060409283018190528681526002825291909120825180519192620006709284929091019062000b7f565b506020828101516001838101919091556040938401516002909301805493151560ff199485161790556000878152600c90925290839020805490921617905580516005606082018181526101208301909352909182916080830160a08036833750505081526636b0b730b3b2b960c91b602080830191909152600060409283018190528581526002825291909120825180519192620007159284929091019062000b7f565b506020828101516001838101919091556040938401516002909301805493151560ff199485161790556000868152600c90925290839020805490921617905580516006606082018181526101408301909352909182916080830160c08036833750505081526430b236b4b760d91b602080830191909152600060409283018190528481526002825291909120825180519192620007b89284929091019062000b7f565b506020828101516001808401919091556040938401516002938401805491151560ff199283161790556000868152600c845285812080549092169092179055600f548882529290915291822080549192909162000819576200081962000be6565b9060005260206000200181905550600f546002600085815260200190815260200160002060000160008154811062000855576200085562000be6565b6000918252602080832090910192909255601054858252600290925260409020805460019081106200088b576200088b62000be6565b906000526020600020018190555060115460026000858152602001908152602001600020600001600281548110620008c757620008c762000be6565b600091825260208083209091019290925560125485825260029092526040902080546003908110620008fd57620008fd62000be6565b9060005260206000200181905550600f546002600084815260200190815260200160002060000160008154811062000939576200093962000be6565b6000918252602080832090910192909255601054848252600290925260409020805460019081106200096f576200096f62000be6565b906000526020600020018190555060115460026000848152602001908152602001600020600001600281548110620009ab57620009ab62000be6565b600091825260208083209091019290925560125484825260029092526040902080546003908110620009e157620009e162000be6565b60009182526020808320909101929092556013548482526002909252604090208054600490811062000a175762000a1762000be6565b9060005260206000200181905550600f546002600083815260200190815260200160002060000160008154811062000a535762000a5362000be6565b60009182526020808320909101929092556010548382526002909252604090208054600190811062000a895762000a8962000be6565b90600052602060002001819055506011546002600083815260200190815260200160002060000160028154811062000ac55762000ac562000be6565b60009182526020808320909101929092556012548382526002909252604090208054600390811062000afb5762000afb62000be6565b60009182526020808320909101929092556013548382526002909252604090208054600490811062000b315762000b3162000be6565b60009182526020808320909101929092556014548382526002909252604090208054600590811062000b675762000b6762000be6565b60009182526020909120015550505050505050505050565b82805482825590600052602060002090810192821562000bbd579160200282015b8281111562000bbd57825182559160200191906001019062000ba0565b5062000bcb92915062000bcf565b5090565b5b8082111562000bcb576000815560010162000bd0565b634e487b7160e01b600052603260045260246000fd5b610c228062000c0c6000396000f3fe608060405234801561001057600080fd5b506004361061002b5760003560e01c8063108cb50314610030575b600080fd5b61003861003a565b005b60006040518060400160405280631c99585960e21b8152602001600015158152509050600060405180604001604052806319591a5d60e21b8152602001600015158152509050600060405180604001604052806564656c65746560d01b8152602001600015158152509050600060405180604001604052806563726561746560d01b8152602001600015158152509050600060405180604001604052806419dc985b9d60da1b815260200160001515815250905060006040518060400160405280657265766f6b6560d01b8152602001600015158152509050631c99585960e21b600f819055508560056000600f5481526020019081526020016000206000820151816000015560208201518160010160006101000a81548160ff0219169083151502179055509050506009600f5490806001815401808255809150506001900390600052602060002001600090919091909150556001600d6000600f54815260200190815260200160002060006101000a81548160ff0219169083151502179055506319591a5d60e21b601181905550846005600060115481526020019081526020016000206000820151816000015560208201518160010160006101000a81548160ff021916908315150217905550905050600960115490806001815401808255809150506001900390600052602060002001600090919091909150556001600d6000601154815260200190815260200160002060006101000a81548160ff0219169083151502179055506563726561746560d01b601081905550826005600060105481526020019081526020016000206000820151816000015560208201518160010160006101000a81548160ff021916908315150217905550905050600960105490806001815401808255809150506001900390600052602060002001600090919091909150556001600d6000601054815260200190815260200160002060006101000a81548160ff0219169083151502179055506564656c65746560d01b601281905550836005600060125481526020019081526020016000206000820151816000015560208201518160010160006101000a81548160ff021916908315150217905550905050600960125490806001815401808255809150506001900390600052602060002001600090919091909150556001600d6000601254815260200190815260200160002060006101000a81548160ff0219169083151502179055506419dc985b9d60da1b601381905550816005600060135481526020019081526020016000206000820151816000015560208201518160010160006101000a81548160ff021916908315150217905550905050600960135490806001815401808255809150506001900390600052602060002001600090919091909150556001600d6000601354815260200190815260200160002060006101000a81548160ff021916908315150217905550657265766f6b6560d01b601481905550806005600060145481526020019081526020016000206000820151816000015560208201518160010160006101000a81548160ff021916908315150217905550905050600960145490806001815401808255809150506001900390600052602060002001600090919091909150556001600d6000601454815260200190815260200160002060006101000a81548160ff0219169083151502179055506000633ab9b2b960e11b905060006532b234ba37b960d11b905060006636b0b730b3b2b960c91b905060006430b236b4b760d91b9050604051806080016040528085815260200184815260200183815260200182815250600790600461057d929190610b5d565b506040805160016060820181815260a0830190935290918291608083016020803683375050508152633ab9b2b960e11b6020808301919091526000604092830181905287815260028252919091208251805191926105e092849290910190610b5d565b506020828101516001838101919091556040938401516002909301805493151560ff199485161790556000888152600c90925290839020805490921617905580516004606082018181526101008301909352909182916080808401908036833750505081526532b234ba37b960d11b60208083019190915260006040928301819052868152600282529190912082518051919261068292849290910190610b5d565b506020828101516001838101919091556040938401516002909301805493151560ff199485161790556000878152600c90925290839020805490921617905580516005606082018181526101208301909352909182916080830160a08036833750505081526636b0b730b3b2b960c91b60208083019190915260006040928301819052858152600282529190912082518051919261072592849290910190610b5d565b506020828101516001838101919091556040938401516002909301805493151560ff199485161790556000868152600c90925290839020805490921617905580516006606082018181526101408301909352909182916080830160c08036833750505081526430b236b4b760d91b6020808301919091526000604092830181905284815260028252919091208251805191926107c692849290910190610b5d565b506020828101516001808401919091556040938401516002938401805491151560ff199283161790556000868152600c845285812080549092169092179055600f548882529290915291822080549192909161082457610824610bbd565b9060005260206000200181905550600f546002600085815260200190815260200160002060000160008154811061085d5761085d610bbd565b60009182526020808320909101929092556010548582526002909252604090208054600190811061089057610890610bbd565b9060005260206000200181905550601154600260008581526020019081526020016000206000016002815481106108c9576108c9610bbd565b6000918252602080832090910192909255601254858252600290925260409020805460039081106108fc576108fc610bbd565b9060005260206000200181905550600f546002600084815260200190815260200160002060000160008154811061093557610935610bbd565b60009182526020808320909101929092556010548482526002909252604090208054600190811061096857610968610bbd565b9060005260206000200181905550601154600260008481526020019081526020016000206000016002815481106109a1576109a1610bbd565b6000918252602080832090910192909255601254848252600290925260409020805460039081106109d4576109d4610bbd565b600091825260208083209091019290925560135484825260029092526040902080546004908110610a0757610a07610bbd565b9060005260206000200181905550600f5460026000838152602001908152602001600020600001600081548110610a4057610a40610bbd565b600091825260208083209091019290925560105483825260029092526040902080546001908110610a7357610a73610bbd565b906000526020600020018190555060115460026000838152602001908152602001600020600001600281548110610aac57610aac610bbd565b600091825260208083209091019290925560125483825260029092526040902080546003908110610adf57610adf610bbd565b600091825260208083209091019290925560135483825260029092526040902080546004908110610b1257610b12610bbd565b600091825260208083209091019290925560145483825260029092526040902080546005908110610b4557610b45610bbd565b60009182526020909120015550505050505050505050565b828054828255906000526020600020908101928215610b98579160200282015b82811115610b98578251825591602001919060010190610b7d565b50610ba4929150610ba8565b5090565b5b80821115610ba45760008155600101610ba9565b7f4e487b7100000000000000000000000000000000000000000000000000000000600052603260045260246000fdfea2646970667358221220c1271ce5b1d0be8b35cfc17fe629105a36756ea5a2302214c56641615dd9501864736f6c63430008110033",
  "immutableReferences": {},
  "source": "// SPDX-License-Identifier: GPL-3.0\n\npragma solidity >=0.8.0 <0.9.0;\n\n/**\n * @title AccessControlList\n */\ncontract Data {\n    struct PermissionStruct {\n        bytes32 permission;\n        bool isCustom;\n    }\n\n    struct Role {\n        bytes32[] permissions;\n        bytes32 name;\n        bool isCustom;\n    }\n\n    struct Resource {\n        bytes32 name;\n        string[] blacklist;\n    }\n\n    struct User {\n        string ebsiDID;\n        bytes32[] resourcesHashes; // this is composed by resource IDs\n        uint256 createdTime;\n        uint256 lastUpdate;\n        uint256 lastAccess;\n    }\n\n    struct ResourcesRoles {\n        bytes32 resourceName;\n        Role role;\n    }\n\n    // Mapping to retrieve the DID of a user when he is connected through MetaMask\n    mapping(address => string) addressesToEbsiDID;\n    // Each user has its own mapping\n    mapping(string => User) users;\n    // Default roles and custom ones\n    mapping(bytes32 => Role) roles;\n    // For each couple of user-resource the mapping will return a role which define what the user can do to that resource\n    mapping(bytes32 => Role) userResourceToRoleData;\n    // Mapping to retrieve a resource mapped into a resourceID\n    mapping(bytes32 => Resource) resourceIDToResourceData;\n    // Mapping to retrieve a permission mapped into a permissionID\n    mapping(bytes32 => PermissionStruct) permissionIDToPermissionData;\n\n    // Lists of data\n    // Array to store all the users - it has the ebsiDIDs inside of it\n    string[] usersArray;\n    // Array to store all the created roles\n    bytes32[] createdRolesArray;\n    // Array to store all the created resources\n    bytes32[] createdResourcesArray;\n    // Array to store all the created permissions\n    bytes32[] createdPermissionsArray;\n\n    // Data Mappers for uniqueness purposes\n    // This is used to know if a particular user has been already created\n    mapping(string => bool) existingUsers;\n    // This is used to know if a particular resource has been already created\n    mapping(bytes32 => bool) existingResources;\n    // This is used to know if a particular role has been already created\n    mapping(bytes32 => bool) existingRoles;\n    // This is used to know if a particular permission has been already created\n    mapping(bytes32 => bool) existingPermissions;\n    // Mapping to retrieve if a particular user with a particular resource is blacklisted\n    mapping(string => bool) blacklistMapping;\n\n    // Events\n    event ResourceUpdated(\n        string eventType,\n        bytes32 name,\n        uint lastUpdated,\n        string listedUser,\n        bool isBlacklisted\n    );\n\n    event UserUpdated(\n        string eventType,\n        string ebsiDID,\n        uint updatedTime,\n        bytes32 addedResource\n    );\n\n    event UpdatedPermission(\n        string eventType,\n        PermissionStruct permission,\n        uint updateTime\n    );\n\n    event UpdatedRole(\n        string eventType,\n        Role role,\n        uint updateTime\n    );\n\n    event CustomError(\n        string message\n    );\n\n    // Default permissions\n    bytes32 read;\n    bytes32 create;\n    bytes32 edit;\n    bytes32 deletePermission;\n    bytes32 grant;\n    bytes32 revoke;\n\n    //INITIALIZE DATA\n    function initRoles() public {\n        PermissionStruct memory READ_PERMISSION = PermissionStruct({ permission: \"read\", isCustom: false });\n        PermissionStruct memory EDIT_PERMISSION = PermissionStruct({ permission: \"edit\", isCustom: false });\n        PermissionStruct memory DELETE_PERMISSION = PermissionStruct({ permission: \"delete\", isCustom: false });\n        PermissionStruct memory CREATE_PERMISSION = PermissionStruct({ permission: \"create\", isCustom: false });\n        PermissionStruct memory GRANT_PERMISSION = PermissionStruct({ permission: \"grant\", isCustom: false }); // Allow a user to give permissions to a user\n        PermissionStruct memory REVOKE_PERMISSION = PermissionStruct({ permission: \"revoke\", isCustom: false }); // Allow a user to revoke permission to another user\n\n        // Default permissions - can be added using createCustomPermissions\n        read = \"read\";\n        permissionIDToPermissionData[read] = READ_PERMISSION;\n        createdPermissionsArray.push(read);\n        existingPermissions[read] = true;\n\n        edit = \"edit\";\n        permissionIDToPermissionData[edit] = EDIT_PERMISSION;\n        createdPermissionsArray.push(edit);\n        existingPermissions[edit] = true;\n\n        create = \"create\";\n        permissionIDToPermissionData[create] = CREATE_PERMISSION;\n        createdPermissionsArray.push(create);\n        existingPermissions[create] = true;\n\n        deletePermission = \"delete\";\n        permissionIDToPermissionData[deletePermission] = DELETE_PERMISSION;\n        createdPermissionsArray.push(deletePermission);\n        existingPermissions[deletePermission] = true;\n\n        grant = \"grant\";\n        permissionIDToPermissionData[grant] = GRANT_PERMISSION;\n        createdPermissionsArray.push(grant);\n        existingPermissions[grant] = true;\n\n        revoke = \"revoke\";\n        permissionIDToPermissionData[revoke] = REVOKE_PERMISSION;\n        createdPermissionsArray.push(revoke);\n        existingPermissions[revoke] = true;\n\n        bytes32 hashedUserRoleID = \"user\";\n        bytes32 hashedEditorRoleID = \"editor\";\n        bytes32 hashedManagerRoleID = \"manager\";\n        bytes32 hashedAdminRoleID = \"admin\";\n\n        // Default roles - can be added using createCustomRole\n        createdRolesArray = [bytes32(hashedUserRoleID), hashedEditorRoleID, hashedManagerRoleID, hashedAdminRoleID];\n\n        roles[hashedUserRoleID] = Role({ permissions: new bytes32[](1), name: 'user', isCustom: false });\n        existingRoles[hashedUserRoleID] = true;\n\n        roles[hashedEditorRoleID] = Role({ permissions: new bytes32[](4), name: 'editor', isCustom: false });\n        existingRoles[hashedEditorRoleID] = true;\n\n        roles[hashedManagerRoleID] = Role({ permissions: new bytes32[](5), name: 'manager', isCustom: false });\n        existingRoles[hashedManagerRoleID] = true;\n\n        roles[hashedAdminRoleID] = Role({ permissions: new bytes32[](6), name: 'admin', isCustom: false });\n        existingRoles[hashedAdminRoleID] = true;\n\n        roles[hashedUserRoleID].permissions[0] = read;\n        roles[hashedEditorRoleID].permissions[0] = read;\n        roles[hashedEditorRoleID].permissions[1] = create;\n        roles[hashedEditorRoleID].permissions[2] = edit;\n        roles[hashedEditorRoleID].permissions[3] = deletePermission;\n        roles[hashedManagerRoleID].permissions[0] = read;\n        roles[hashedManagerRoleID].permissions[1] = create;\n        roles[hashedManagerRoleID].permissions[2] = edit;\n        roles[hashedManagerRoleID].permissions[3] = deletePermission;\n        roles[hashedManagerRoleID].permissions[4] = grant;\n        roles[hashedAdminRoleID].permissions[0] = read;\n        roles[hashedAdminRoleID].permissions[1] = create;\n        roles[hashedAdminRoleID].permissions[2] = edit;\n        roles[hashedAdminRoleID].permissions[3] = deletePermission;\n        roles[hashedAdminRoleID].permissions[4] = grant;\n        roles[hashedAdminRoleID].permissions[5] = revoke;\n    }\n\n    constructor() {\n        initRoles();\n    }\n}\n",
  "sourcePath": "/Users/alessandropucci/Desktop/progetti personali/ebsi-access-control/ebsi-access-control/ebsi-access-control/contracts/Data.sol",
  "compiler": {
    "name": "solc",
    "version": "0.8.17+commit.8df45f5f.Emscripten.clang"
  },
  "schemaVersion": "3.4.16",
  "updatedAt": "2024-01-21T19:55:49.812Z",
  "devdoc": {
    "kind": "dev",
    "methods": {},
    "title": "AccessControlList",
    "version": 1
  },
  "userdoc": {
    "kind": "user",
    "methods": {},
    "version": 1
  }
}